:020000040800F2
:10000000280E0020BD010008311C0008291C000832
:100010002D1C0008A903000815200008000000009E
:10002000000000000000000000000000F9010008CE
:10003000C5030008000000006702000877020008FE
:10004000D7010008D7010008D7010008D701000830
:10005000D7010008D7010008D7010008D701000820
:10006000D7010008D7010008D7010008D701000810
:10007000D7010008D7010008D7010008D701000800
:10008000AD030008B9030008D7010008D701000834
:10009000D7010008D7010008D7010008D7010008E0
:1000A000D7010008D7010008D7010008D7010008D0
:1000B000D7010008D7010008D7010008D7010008C0
:1000C000D7010008D7010008D7010008D7010008B0
:1000D000D7010008D701000809200008D70100084F
:1000E000C9030008D7010008D701000800F002F892
:1000F00000F050F814A696E8000CB244B344DA4578
:1001000001D100F047F8BAE80F000FA696E83000DA
:10011000A5EB040504EB0607AAEB0704A7F101070A
:100120004FEA15154FEA3414A4F10104AC4201D38F
:1001300000F030F813F0010F18BFFB1A43F0010371
:1001400000F001F8DBE71847744300009443000017
:10015000103A24BF78C878C1FAD8520724BF30C8F3
:1001600030C144BF04680C60704700007047000055
:100170000023002400250026103A28BF78C1FBD8B0
:10018000520728BF30C148BF0B6070471FB51FBD65
:1001900010B510BD00F0CDF8114603B401F090FF8A
:1001A00003BCFFF7F3FF02F0E3F800F0E7F803B455
:1001B000FFF7EEFF03BC00F0EFF8000009488047AE
:1001C00009480047FEE7FEE7FEE7FEE7FEE7FEE739
:1001D000FEE7FEE7FEE7FEE704480549034A054B54
:1001E00070470000C51C0008ED000008280C002026
:1001F000280E0020280C00201EF0040F0CBFEFF387
:100200000880EFF30980816911F8021C00291CD1D4
:1002100001B590E80F10E047BDE80050CCF80000B1
:10022000194B93E80600914208BF70471A6019B154
:100230002CE9F00FC1F838C01400A06B6FF0020E6B
:10024000B0E8F00F80F309887047104A13689942AC
:10025000FAD801B552F821C00FC8E047BDE80050F8
:10026000CCF80000704701B502F034FCBDE8014055
:10027000EFF3098CD4E701B503F034FABDE801408F
:10028000EFF3098CCCE70000200000207044000848
:1002900010B5431C02E010F8011B71B18107FAD1BF
:1002A0004FF0013202C88C1A8C4314EAC211F9D003
:1002B000C01A0A0603D0C01E10BDC01A10BD0A0421
:1002C00001D0801E10BD0902FCD0401E10BD02F0FE
:1002D000FF0343EA032242EA024200F002B84FF071
:1002E000000200B5134694469646203922BFA0E886
:1002F0000C50A0E80C50B1F12001BFF4F7AF090792
:1003000028BFA0E80C5048BF0CC05DF804EB890082
:1003100028BF40F8042B08BF704748BF20F8022BC5
:1003200011F0804F18BF00F8012B704770477047DD
:100330007047754600F02CF8AE46050069465346F6
:1003400020F00700854618B020B5FFF745FFBDE84F
:1003500020404FF000064FF000074FF000084FF02C
:10036000000BAC46ACE8C009ACE8C009ACE8C00979
:10037000ACE8C00921F007018D46704710B504466E
:10038000AFF300802046BDE81040FFF710BF00002B
:1003900000487047B000002001491820ABBEFEE7BE
:1003A0002600020070470000FEE7000040F26010E7
:1003B000C2F2000000F0F4B840F2A410C2F2000053
:1003C00000F0EEB8704700004FF4806000F0A0BA73
:1003D00072B600BFFEE700007047000070470000E3
:1003E0007047000070470000704700007047000031
:1003F0007047000070470000704700007047000021
:100400007047000070470000704700007047000010
:100410007047000070470000704700007047000000
:1004200070470000704700007047000070470000F0
:1004300070470000704700007047000070470000E0
:1004400070470000704700007047000070470000D0
:1004500070470000704700007047000070470000C0
:1004600070470000704700007047000070470000B0
:1004700070470000704700007047000070470000A0
:100480007047000070470000704700007047000090
:100490007047000070470000704700007047000080
:1004A000014690F82100022816D10868D1E90FC34F
:1004B000026822F00E020260026822F0010202606D
:1004C000012000FA03F2CCF8042081F8210000207A
:1004D000002281F820207047042088630120002238
:1004E00081F820207047000090F82110022923D1C4
:1004F000026840F2040C1168C4F2020C21F00E01F3
:10050000116013682F21C4F202018A4223F0010313
:10051000136015DD3023C4F202039A421CD0442339
:10052000C4F202039A421BD05823C4F202039A4237
:100530001CD14FF4803321E00421816301207047F6
:100540000823C4F202039A420ED01C23C4F2020311
:100550009A420BD1102311E04FF480730EE000BFDC
:100560004FF480530AE000BF012307E00CF168015B
:100570004FF080738A4208BF4FF480130121CCF8FA
:10058000003080F82110416B0022002980F82020E3
:1005900004BF0020704780B58847002080BD000060
:1005A00010B5D0E90FCE0168DCF800300A6823FAF4
:1005B0000EF35C072AD512F0040427D00A689206CD
:1005C00003D40A6822F004020A602F22C4F2020255
:1005D000914240F20402C4F202025BDD3023C4F215
:1005E0000203994272D04423C4F20203994273D0A9
:1005F0005823C4F20203994240F07A804FF48023DA
:100600001360C16A002940F098806FE09C0727D5ED
:1006100012F0020424D00A68920606D40A6822F076
:100620000A020A60012280F821202F22C4F202026D
:10063000914240F20402C4F202023BDD3023C4F2D4
:100640000203994260D04423C4F2020399425FD06E
:100650005823C4F20203994260D14FF4003365E09D
:100660001B0743D512F0080208BF10BD0A6822F02C
:100670000E020A60012101FA0EF2CCF80420816317
:1006800080F82110016B0022002980F8202054D12D
:100690002CE000BF0823C4F20203994222D01C239D
:1006A000C4F20203994223D140231360C16A002996
:1006B00043D11BE00823C4F2020399422CD01C232F
:1006C000C4F20203994229D120232FE04FF4806322
:1006D0001360C16A89BB09E04FF480431360C16AAB
:1006E00059BB03E004231360C16A31BB10BD00BFD6
:1006F00002F168044FF08063A14208BF4FF4800309
:100700001360C16AC9B9F1E74FF400730EE000BF8E
:100710004FF400530AE000BF022307E002F168042F
:100720004FF00073A14208BF4FF400131360816AB9
:100730000022002980F82020D8D0BDE810400847CA
:10074000014600284FF0010008BF70472DE9F04333
:10075000D1F800C04FF6F873CBF6FD734CF6CD42DE
:100760006344CCF6CC42A3FB02236FF0030202EAFF
:1007700093020023C4F2020301F10C08C1E90F3215
:100780000222D1E9019E98E8F00181F82120DCF8ED
:10079000002043F6F0739A4342EA090242EA0E024D
:1007A00022432A4332433A4342EA0802CCF800206B
:1007B00000228A6381F8210081F820200020BDE812
:1007C000F043704790F820C0BCF1010F04BF022035
:1007D0007047F0B54FF0010E80F820E090F821C08E
:1007E000BCF1010F26D14FF0020C80F821C04FF070
:1007F000000CC0F838C0D0E900C4C56AC66BDCF88C
:100800000070102C27F00107CCF80070006C0EFA75
:1008100000F070600846CCF8043004BF10460A4669
:10082000CCF80800CCF80C20DCF8000045B140F012
:100830000E000DE0002180F820100220F0BD00BF66
:1008400020F00400CCF80000DCF8000040F00A00C2
:10085000CCF80000DCF8000040F00100CCF800000B
:100860000020F0BD10B5B0F5806F05D140F2101436
:10087000C2F20004607808B110BD00BF41F204006C
:10088000CEF20000006848F63961C3F6E301A0FB30
:100890000101A06848F2A162C0EB1110C0F2010290
:1008A00090424FEA111003D300212170A0602BE089
:1008B000E178A06041B3E168E060411A6429DBD3CC
:1008C000207843280DD822784FF6FF70814238BF38
:1008D0000846511C217040F23021C2F2000121F87B
:1008E00012002078432838BF10BD0120607000201E
:1008F0002070E07001F010FE0228BDD16068012177
:10090000BDE8104002F042BFE0600120E07010BD81
:1009100040F21441C4F201010A68024214BF0860A7
:100920007047FFF79FBF00002DE9F04F82B00E68BF
:10093000002E00F0FD8041F20042C4F201020423C7
:1009400040F2004E904208BF03234FF6FF7CC4F2F2
:10095000010E009300240123C1F2100C4FF0000A95
:100960004FF000094BE000BF41F20002C4F2010267
:10097000009F904208BF022704F00C030F229A4008
:100980002BEA020207FA03F34FEA9A051A4346F8E4
:1009900025204E6840F20C45F202DEF8082054BFD4
:1009A00022EA080242EA0802C4F20105CEF8082051
:1009B0002A68B30254BF22EA080242EA08022A6007
:1009C000B303DEF8042054BF22EA080242EA080218
:1009D000F303CEF80420DEF800204FF0010354BFEB
:1009E00022EA080242EA0802CEF800200E680AF164
:1009F000010A36FA0AF204F1040400F0998003FABD
:100A00000AFB16EA0B08F1D04E68664512DC122E7E
:100A100056D8DFE806F0350B4D4955555555555517
:100A20005555555555555545510000BFD1F80C90B9
:100A300046E000BF4FF6FF72C1F2210296420FDC82
:100A40000022C1F2110296421AD00022C1F2120213
:100A5000964215D00022C1F22102964210D02FE01A
:100A60000022C1F2220296420AD00022C1F23102D3
:100A7000964205D00022C1F23202964220D100BF38
:100A80008A684AB1012A14BFC0F814B0C0F810B087
:100A90004FF0080914E000BF4FF0040910E000BF58
:100AA000CA6802F104090BE04FF0000908E000BF3A
:100AB000CA6802F1080903E0CA6802F10C0900BF24
:100AC00002462646B8F5807F24BF0432203E1768D0
:100AD0000F25B54027EA050509FA06F635431560E6
:100AE000CA79D2067FF582AF41F21803C4F202033D
:100AF0001A68AEF57E7642F001021A601A6802F0BA
:100B000001020192019A2AF0030256F802B040F65F
:100B10000002C4F20102904208D040F60042C4F242
:100B2000010290427FF420AF012725E7002723E749
:100B300002B0BDE8F08F000001F00CBD80B542F2BC
:100B40000000C4F20200016841F0100101600320BE
:100B500000F06AF80F2000F005F800F005F800201A
:100B600080BD00000020704782B041F21800C4F23E
:100B700002000168022241F001010160016801F0F8
:100B8000010101910199416841F080514160406843
:100B900000F08050009000980420C4F20100016829
:100BA00062F31A61016002B070470000002848BF7C
:100BB000704700F01F01012202FA01F11C2202EA33
:100BC000D0004EF20012CEF20002815070470000B9
:100BD00010B54EF60C5CCEF2000CDCF80030C3F31E
:100BE000022E8EF00704042C28BF0424BEF1030358
:100BF0004FF0FF3E0EFA04F438BF0023A1439940A2
:100C00000EFA03F39A43114300F00F0200F1604320
:100C10000901043A03F564436244002848BF02F125
:100C20000C03197010BD00004EF60C51CEF20001FD
:100C30000A684FF6FF031A4060F30A2242F0806010
:100C400040F0FD7008607047002804BF0120704725
:100C50002DE9F04381B042F20008C4F202080446D4
:100C6000D8F800000D4600F0070081420CD9D8F8F2
:100C7000000020F007002843C8F80000D8F8000062
:100C800000F00700A8426CD1206841F204098107F6
:100C9000C4F2020917D5410705D5D9F8001041F46F
:100CA000E061C9F80010010705D5D9F8001041F43A
:100CB0006051C9F80010D9F80010A26821F0F001C5
:100CC0001143C9F80010C00742D1D8F8000000F065
:100CD000070085420CD2D8F8000020F00700284316
:100CE000C8F80000D8F8000000F00700A84238D18A
:100CF0002068410707D5D9F80010E26821F4E061C7
:100D00001143C9F80010000708D5D9F8000021697F
:100D100020F4605040EAC100C9F80000D9F8002072
:100D200002F00C00082841F20020C0F27A004DD1F8
:100D300044F23A43C2F38341C0F60003595CD20344
:100D400038D440F60010C0F23D0048433EE000BFFA
:100D5000606859F8041C022808D0012826D18903AC
:100D600006D4012001B0BDE8F08300BF8901F8D5A9
:100D7000D9F8001021F003010843C9F80000FFF77B
:100D8000DBFE064641F28837D9F80000616800F0C2
:100D90000C00B0EB810F98D0FFF7CEFE801BB8425D
:100DA000F2D9032001B0BDE8F08300BF8907D8D590
:100DB000DEE700BFD9F8002044F23843C2F34042D6
:100DC000C0F600039A5C4843B0FBF2F0D9F800107B
:100DD00044F22042C1F30311C0F60002515C40F21C
:100DE000080220FA01F140F20400C2F2000000689B
:100DF000C2F200021160FFF7B5FE002001B0BDE8AD
:100E0000F083000040F2080041F20401C2F2000049
:100E1000C4F202010068096844F23042C1F30221C1
:100E2000C0F60002515CC8407047000040F2080064
:100E300041F20401C2F20000C4F202010068096834
:100E400044F23042C1F3C221C0F60002515CC840F6
:100E500070470000002804BF012070472DE9F041D1
:100E600082B00446007841F20006C007C4F20206D0
:100E70000CD0706800F00C00042840F081803068CD
:100E8000800303D56068002800F046812078800741
:100E90001BD5706810F00C0F09D0706800F00C00C2
:100EA000082840F087807068C00300F183803068B4
:100EB000800703D52069012840F02E8130686169E0
:100EC00020F0F80040EAC10030602078000713D419
:100ED000207840072CD4E569002D00F01881706857
:100EE00000F00C00082840F0A780012D40F004819C
:100EF000012002B0BDE8F081A069002800F08480E4
:100F00000020C4F242200121C0F88014FFF714FE33
:100F1000054600BF706A800700F1B280FFF70CFE43
:100F2000401B0228F6D9032002B0BDE8F08100BFC3
:100F3000F0695FEAC00808D4F06940F08050F061C1
:100F4000F06900F080500090009847F20007C4F26A
:100F500000073868C00549D4386840F480703860AC
:100F6000FFF7EAFD054600BF3868C0053ED4FFF72D
:100F7000E3FD401B6428F7D9032002B0BDE8F081EF
:100F8000706800F00C00082803D17068C0033FF5BA
:100F900076AF61683068002900F00C81B1F5A02FB0
:100FA00000F00081B1F5803F40F01A8140F48030BC
:100FB0001CE100BF2069002840F20000C4F242207A
:100FC00000F0888001210160FFF7B6FD054600BFF3
:100FD000306880073FF572AFFFF7AEFD401B022877
:100FE000F6D9032002B0BDE8F08100BFE168306AA5
:100FF000002900F09D80052900F09280012940F031
:10100000AF8040F00100B1E00020C4F24220002196
:10101000C0F88014FFF790FD054600BF706A800796
:101020007FF556AFFFF788FD401B0228F6D9032055
:1010300002B0BDE8F08100BF0027C4F242270020C3
:101040003866FFF779FD022D05460DD13068800125
:1010500040F1DE80FFF770FD401B02284FF00300D7
:10106000F4D902B0BDE8F081306880014FD5FFF7B8
:1010700063FD401B02284FF00300F5D9F1E700BFE4
:1010800040F20800C2F20000006844F6D351C1F2F9
:101090006201A0FB0101480A019000BF00BF019856
:1010A000411E002801913FF413AF00BF0198411E7B
:1010B000002801913FF40CAF00BF0198411E0028A9
:1010C00001913FF405AF00BF0198411E0028019136
:1010D000E4D1FDE600210160FFF72EFD054600BFCB
:1010E000306880077FF5F1AEFFF726FD401B022830
:1010F0004FF00300F4D9B4E77068216A00F480323D
:101100008A4209D1616A00F47010884204D100203B
:1011100002B0BDE8F08100BF012002B0BDE8F0815F
:1011200040F004003062306A40F001001EE000BF71
:1011300020F001003062306A20F004003062FFF7D6
:10114000FBFC054641F28837306A800720D5FFF75F
:10115000F3FC401BB8424FF00300F5D981E700BF14
:1011600020F001003062306A20F004003062FFF7A6
:10117000E3FC054641F28837306A800708D4FFF760
:10118000DBFC401BB842F7D9032002B0BDE8F08178
:10119000B8F1000F3FF59FAEF06920F08050F0618C
:1011A00099E600BF40F480203060306840F4803021
:1011B0001CE000BF20F480303060306820F48020D4
:1011C0003060FFF7B9FC0546306880037FF55EAEFE
:1011D000FFF7B2FC401B64284FF00300F4D940E74E
:1011E00020F480303060306820F480203060FFF7D9
:1011F000A3FC0546306880033FF548AEFFF79CFC32
:10120000401B6428F6D9032002B0BDE8F08100BF7E
:10121000206AB0F5803F05D17168A26821F40031E1
:10122000114371607168626A21F4741111430843BB
:10123000706001203866FFF77FFC0446306880014B
:101240003FF565AFFFF778FC001B02284FF0030065
:10125000F4D906E77047000070470000B0B582B0CF
:1012600001680A68CC684B6902F02F05202D04F054
:10127000200505D125B102B0BDE8B04000F044BE64
:101280005FEA027C1EBF03F0010E04F4907313EBBF
:101290000E0341D1036BD50618D5012B16D114F0DE
:1012A000100313D0002201920A6801924A68019249
:1012B000019A496949064BD4818DC28DC38D002B9B
:1012C00018BF914240F0F48102B0B0BD13062DD595
:1012D00014F080032AD090F84120212AF4D18268AA
:1012E000B2F5805F03D10269002A00F06782026ACA
:1012F000531C036212784A60C28C013A1304C28400
:10130000E2D1C86820F08000C860C86840F04000A2
:10131000C86002B0B0BD00BFD30718BF14F480731B
:1013200040F0D080530700F1D380D8E05206CBD5EF
:1013300014F04002C8D0CA6822F04002CA602021DE
:1013400080F8411002B0BDE8B04000F05BBC00BFC7
:10135000C16B0A68526893B2002BB5D0858DAB4241
:10136000B2D2C2858969202900F0A180016851E8C4
:10137000031F026821F4807142E80313DBB10168A6
:1013800051E8031F026821F4807142E8031393B10E
:10139000016851E8031F026821F4807142E80313D9
:1013A0004BB1016851E8031F026821F4807142E8E3
:1013B0000313002BDAD1016851E8051F026821F000
:1013C000010142E80513C3B3016851E8051F026833
:1013D00021F0010142E805137BB3016851E8051FC4
:1013E000026821F0010142E8051333B3016851E8B6
:1013F000051F026821F0010142E80513002BDAD134
:101400001BE000BF016851E8051F026821F04001A0
:1014100042E80513DBB1016851E8051F026821F0BD
:10142000400142E8051393B1016851E8051F0268C5
:1014300021F0400142E805134BB1016851E8051F56
:10144000026821F0400142E80513002BDAD1202187
:1014500080F8421000210163016851E8031F02680F
:1014600021F0100142E80313DBB1016851E8031FCA
:10147000026821F0100142E8031393B1016851E8BA
:10148000031F026821F0100142E803134BB1016809
:1014900051E8031F026821F0100142E80313002BFA
:1014A000DAD1C16B04460846FEF7FAFF2046022156
:1014B0004163818DC28D891A89B202B0BDE8B04006
:1014C000FFF7C8BE436C43F001034364530706D5DE
:1014D000BEF1000F03D0436C43F002034364930753
:1014E00006D5BEF1000F03D0436C43F00403436400
:1014F000BCF1000F06D55EEA050303D0436C43F050
:1015000008034364436C002B3FF4DEAE920605D51E
:1015100025B1044600F0F8FC216820464969426C78
:1015200001F0400102F00802891800F0B98000BF04
:10153000016851E8031F026821F4907142E8031327
:10154000BBB3016851E8031F026821F4907142E8BF
:10155000031373B3016851E8031F026821F490710B
:1015600042E803132BB3016851E8031F026821F41A
:10157000907142E80313002BDAD11AE0016851E8B8
:10158000051F026821F0010142E80513DBB1016883
:1015900051E8051F026821F0010142E8051393B1EB
:1015A000016851E8051F026821F0010142E80513B6
:1015B0004BB1016851E8051F026821F0010142E8C2
:1015C0000513002BDAD1016B012924D1016851E800
:1015D000031F026821F0100142E80313DBB1016828
:1015E00051E8031F026821F0100142E8031393B190
:1015F000016851E8031F026821F0100142E803135B
:101600004BB1016851E8031F026821F0100142E864
:101610000313002BDAD1202180F84210002101634E
:1016200001684969490640F1C380016851E8051F16
:10163000026821F0400142E80513DBB1016851E87E
:10164000051F026821F0400142E8051393B10168CB
:1016500051E8051F026821F0400142E805134BB133
:10166000016851E8051F026821F0400142E80513B6
:10167000002BDAD1C16B002900F09A8041F6C942F3
:10168000C0F60002044608464A63FEF72DFF002814
:101690003FF41AAEE06B416B02B0BDE8B0400847C2
:1016A0000446FFF7D9FD0020606402B0B0BD00BF62
:1016B000891A00BF026852E8032F036822F490726F
:1016C00043E80325BDB3026852E8032F036822F400
:1016D000907243E8032575B3026852E8032F03684C
:1016E00022F4907243E803252DB3026852E8032FD9
:1016F000036822F4907243E80325002DDAD11AE042
:10170000026852E8052F036822F0010243E805252C
:10171000DDB1026852E8052F036822F0010243E8B8
:10172000052595B1026852E8052F036822F00102F1
:1017300043E805254DB1026852E8052F036822F001
:10174000010243E80525002DDAD1202280F842204D
:1017500000220263026852E8032F036822F010029D
:1017600043E80325DDB1026852E8032F036822F045
:10177000100243E8032595B1026852E8032F03687D
:1017800022F0100243E803254DB1026852E8032F0E
:10179000036822F0100243E80325002DDAD102226B
:1017A00089B2426302B0BDE8B040FFF753BD00BF4D
:1017B00002B0BDE8B040FFF74FBD00BF026A32F88B
:1017C000023B6FF35F234B60026295E5002804BF84
:1017D0000120704710B5044690F8410028B9002058
:1017E00084F84000204600F063F8242084F841008B
:1017F0002068D4E90212C36823F40053C36003696C
:1018000023F440531A430261D4E904231143C2680C
:10181000194341F20C639A431143C1604169A269C3
:1018200021F44071114343F60002C4F201029042D8
:10183000416103D0FFF7E6FA02E000BFFFF7F6FAD6
:10184000D4E90023192148439900B0FBF1F048F294
:101850001F5CC5F2EB1CA0FB0C314FF69C734909D1
:10186000C0F6FF7301FB0300322303EB0010A0FB63
:101870000C03F02000EA531000EB0110C3F34311F6
:10188000084490601069202120F490401061506954
:1018900020F02A005061D06840F40050D060002051
:1018A000606484F8411084F84210606310BD000049
:1018B0002DE9F04186B040F600050446C4F201056A
:1018C0000068A5F54441002788420597CDE90377D4
:1018D000029703D006B0BDE8F08100BF41F21800C6
:1018E000C4F20200416802AE41F400314160416837
:1018F00040F26C0801F40031019101990168C4F2D1
:10190000020841F0040101600068314600F0040063
:10191000019001980420029002200390032005907A
:101920002846FFF701F80820CDE90207284631468E
:101930000497FEF7F9FF40F26015C2F20005802619
:101940002846C5E90087C5E90276C5E90477C5E9F7
:101950000677FEF7F5FE002818BFFEF739FDE563B0
:101960006C6240F2A41508F11400C2F200051021C7
:10197000002285E847002846C5E90422C5E9062279
:10198000FEF7DEFE002818BFFEF722FD262000210C
:101990000022A5636C62FFF71BF92620FFF706F90A
:1019A00006B0BDE8F0810000704700002DE9F0436B
:1019B00081B0044690F84100202809D100294FF059
:1019C000010018BF002A07D101B0BDE8F08300BFB5
:1019D000022001B0BDE8F0830020606421201D4694
:1019E0000E4684F841001746FFF7A6F8A784E7845F
:1019F000A1688146B1F5805F02D1206900285DD0E1
:101A000037460020E28C2168002A5DD06A1C24D071
:101A1000002D4AD0804600BF0868000608D4FFF7B2
:101A20008BF8A0EB0900A8427AD82168C868F3E7D0
:101A300017B117F8010B04E038F8020B00276FF319
:101A40005F204860E08C0138E084E08C0028E3D11E
:101A50003AE000BF0A68120609D40A68120606D4E2
:101A60000A6812065CBF0A685FEA0262F2D51FB11B
:101A700017F8012B05E000BF30F8022B00276FF3A9
:101A80005F224A60E28C013AE284E28C002AE4D1CF
:101A90001AE000BF30F8022B00276FF35F224A6084
:101AA000E28C013AE284E28C72B10A68120635D502
:101AB000002FEFD017F8012BF1E700BF00273046C9
:101AC000E28C2168002AA1D1086840061ED42DB3FB
:101AD000681C14D1086840062AD40868400627D438
:101AE0000868400624D4086840064FF00000F1D58D
:101AF0000DE000BF2068C1680068400618D4FFF7F9
:101B00001BF8A0EB0900A842F4D909E0002020212D
:101B100084F8411001B0BDE8F08300BFFFF70CF876
:101B20000320202184F8411001B0BDE8F08300BFFC
:101B30000020202184F8411001B0BDE8F0830000AE
:101B400090F84130202B09D1944600294FF0010232
:101B500018BFBCF1000F05D1104670470222104695
:101B6000704700BF70B5002221230162A0F824C095
:101B7000A0F826C0426480F841300468836B41F6C7
:101B8000516E41F6017541F6D546C0F6000EC0F61D
:101B90000005C0F60006C3E90AE5C3E90C62221D90
:101BA000044618466346FEF70DFE216820466FF096
:101BB00040020A60016851E8051F026841F0800197
:101BC00042E80513DBB1016851E8051F026841F0E6
:101BD000800142E8051393B1016851E8051F0268CE
:101BE00041F0800142E805134BB1016851E8051F3F
:101BF000026841F0800142E80513002BDAD1002091
:101C000070BD0000006844F20041C4F20001884247
:101C100018BF704740F21010C2F20000002181701E
:101C20007047000070470000FEE70000FEE700007C
:101C3000FEE700004EF21000CEF200000068704790
:101C400040F6C820C2F200000178012908D1002125
:101C500001704EF60450CEF200004FF0806101603A
:101C60004EF21000CEF20000016841F00101016067
:101C7000704700004FF0FF307047000058B140F24D
:101C80000801C2F200010968B1FBF0F0411E00201A
:101C9000B0EB116F02D04FF0FF3070474EF6235279
:101CA000CEF20002FF2313704EF21002CEF20002B9
:101CB00006231360516040F6C821C2F20001906013
:101CC0000870704770470000406A0021C185C184D8
:101CD000FFF7C2BA406A01684A6990F84130212B87
:101CE0002DD112F080022AD00021C184016851E870
:101CF000031F026821F0C00142E80313DBB1016851
:101D000051E8031F026821F0C00142E8031393B1B8
:101D1000016851E8031F026821F0C00142E8031383
:101D20004BB1016851E8031F026821F0C00142E88D
:101D30000313002BDAD1202180F841100168496992
:101D400090F84220222A40F07D8011F0400179D0A5
:101D50000021C185016851E8031F026821F49071D8
:101D600042E80313BBB3016851E8031F026821F482
:101D7000907142E8031373B3016851E8031F0268CE
:101D800021F4907142E803132BB3016851E8031F5B
:101D9000026821F4907142E80313002BDAD11AE0B3
:101DA000016851E8051F026821F0010142E80513AE
:101DB000DBB1016851E8051F026821F0010142E82A
:101DC000051393B1016851E8051F026821F0010174
:101DD00042E805134BB1016851E8051F026821F084
:101DE000010142E80513002BDAD1016B012924D14E
:101DF000016851E8031F026821F0100142E8031353
:101E0000DBB1016851E8031F026821F0100142E8CC
:101E1000031393B1016851E8031F026821F0100118
:101E200042E803134BB1016851E8031F026821F037
:101E3000100142E80313002BDAD1202180F8421070
:101E400000210163416C41F010014164FFF704BAC5
:101E50000168406A0968890648BFFFF7D3BE0021C0
:101E6000C18400BF016851E8051F026821F08001AC
:101E700042E8051383B3016851E8051F026821F0A9
:101E8000800142E805133BB3016851E8051F026871
:101E900021F0800142E80513F3B1016851E8051F04
:101EA000026821F0800142E80513002BDAD113E02B
:101EB000016851E8031F026841F0400142E8031342
:101EC000002B08BF7047016851E8031F026841F00A
:101ED000400142E8031393B1016851E8031F02680F
:101EE00041F0400142E803134BB1016851E8031F80
:101EF000026841F0400142E80313002BD8D170473B
:101F0000406AFFF78FBE000081B090F8421022298E
:101F100021D183680246B3F5805F09D152F8281FAA
:101F200052F8183C002B63D003685B680AE000BFDE
:101F300052F8281F13B90369002BF5D003685B68BA
:101F400003F07F030B70116801311160C18D0139FD
:101F50000A04C18502D001B0704700BF0168CA6899
:101F600022F02002CA60CA6822F48072CA604A69FC
:101F700022F001024A61202180F8421000214163D1
:101F8000026B012A3CD10163016851E8031F02681A
:101F900021F0100142E80313DBB1016851E8031F8F
:101FA000026821F0100142E8031393B1016851E87F
:101FB000031F026821F0100142E803134BB10168CE
:101FC00051E8031F026821F0100142E80313002BBF
:101FD000DAD101680A68D20606D5002200920A68A2
:101FE0000092496800910099818D01B0FFF732B9E4
:101FF000026852686FF35F2221F8022B8162A5E725
:1020000001B0FFF7D1BC000040F2E810C2F20000BE
:10201000FFF724B9FEE70000B0B540F62045C2F254
:1020200000052978044689B900F076FA022809DB10
:102030000120287020684FF0FF31BDE8B04000F06B
:10204000D9BA00BF2878012818BFB0BD20684FF06A
:10205000FF31BDE8B04000F0CDBA0000006800F0EC
:10206000E7BA000010B50446002000F0FFFA00288F
:1020700020601CBF012010BD0520214600F038FB68
:10208000002010BDB0B540F62045C2F20005297809
:10209000044679B900F040FA022807DB01202870D5
:1020A0002068BDE8B04000F0FFBA00BF28780128E2
:1020B00018BFB0BD2068BDE8B04000F0F5BA000020
:1020C00000F062BA40F2101640F230244FF0000BDC
:1020D000C2F20006C2F2000441F6593842F6F72572
:1020E00040F2833940F2562A04E000BFFFF728FD92
:1020F00086F801B0012000214FF0FF3201F08EFB85
:1021000070780128F6D1208840450FD32088A84256
:102110000CD8608840F6B931884207D3608841F214
:102120006F71884202D80020002221E020884045BB
:10213000DED32088A842DBD86088B0F5FA6FD7D903
:10214000608840F6C3118842D2D8B0780028CFD139
:102150000120B07040F2E810C2F2000081A1082214
:10216000C4E700BF51004A1C2030802800F0968050
:102170002118CB8840F28235A3F2B147AF4233D861
:102180005200013242F6F7254B89A3F2B1474F4581
:1021900037D252000132CB89A3F2B1474F453BD22F
:1021A000520001324B8AA3F2B1474F453FD2520051
:1021B0000132CB8AA3F2B1474F4543D252000132DC
:1021C0004B8BA3F2B1474F4547D252000132CB8B24
:1021D000A3F2B1474F454BD252000132498CA1F2D4
:1021E000B1434B45BED34FE0A3F22D13534542F606
:1021F000F7253FF67DAF52004B89A3F2B1474F451B
:10220000C7D3A3F22D1353453FF672AF5200CB89CB
:10221000A3F2B1474F45C3D3A3F22D1353453FF665
:1022200067AF52004B8AA3F2B1474F45BFD3A3F229
:102230002D1353453FF65CAF5200CB8AA3F2B14752
:102240004F45BBD3A3F22D1353453FF651AF520078
:102250004B8BA3F2B1474F45B7D3A3F22D13534590
:102260003FF646AF5200CB8BA3F2B1474F45B3D3F5
:10227000A3F22D1353453FF63BAF5200498CA1F218
:10228000B1434B45FFF46EAFA1F22D1151453FF61E
:102290002FAF5200203080287FF46AAFB07800283A
:1022A0007FF426AF44F643703746C4F2445044F2FC
:1022B000984347F8100F02F00F00C0F60003185CB7
:1022C000C2F30311B873C2F30340185C595CB872CF
:1022D000C2F30360185C797338723876C2F3032056
:1022E000185CC2F30351387387F8210043F6452088
:1022F000C7F63000C7F8030043F65220C7F6300097
:10230000595CC7F8130044F22010C4F244407972BB
:10231000110FC7F80F0044F22030595CC4F24D4051
:10232000C7F8190043F64420F971F975C2F3033177
:10233000C7F63000595CF86140F60D207884012022
:10234000F97287F8201087F824B007F80E0C384689
:10235000FDF79EFF82B240F2E810C2F2000039465B
:10236000C4E600BF5245504541540D0A000000002C
:1023700090B0FEF7E3FB00240120CDE90B44CDE94A
:10238000094406900A904FF4E0104FF48031022582
:102390000F9006A8CDE90714CDE90D51FEF75AFDBF
:1023A00010B172B6FEE700BF0F20CDE901054FF472
:1023B000806501A802210394CDE90454FEF744FC92
:1023C00010B172B6FEE700BF4EF6FC50CEF2000030
:1023D0000168002441F08071016041F20000CEF2FA
:1023E0000000016841F2180641F0010101604460FB
:1023F000CDE90844CDE90644C4F20206306806A9D6
:1024000040F020003060306800F02000019001981A
:10241000306840F004003060306800F00400019043
:102420000198306840F008003060306800F0080023
:10243000019001980695002044F20045C1F2310058
:10244000C4F20005CDE9070405F54840FEF76CFA33
:10245000282006210022FEF7BBFB2820FEF7A6FB62
:1024600056F8040C062140F0010046F8040C56F81A
:10247000040C002200F00100069006981020FEF7E0
:10248000A7FB1020FEF792FB112006210022FEF789
:102490009FFB1120FEF78AFB40F2E810C2F2000019
:1024A0004FF4E1310C22C0E90051C0E90244C0E917
:1024B0000442C0E90644FFF789F918B172B600BFBB
:1024C000FEE700BF40F2E810C2F200000DA11222A8
:1024D0006423FFF76BFA00F057F842F2C50044F2AC
:1024E0004C42C0F60000C0F60002002101F0B8F92D
:1024F00040F21011C2F20001486000F061F800BF24
:10250000FEE700BF4952204465636F646572205244
:10251000656164790D0A0000EFF3058048B9EFF3B7
:10252000108030B9EFF3118018B9EFF31480C007B1
:102530000AD110B540F20C00C2F20000047A204625
:10254000FDF752FF204610BD43F6A50CC0F6000C67
:1025500000DF7047EFF3058028B9EFF3108010B962
:10256000EFF3118050B110B540F20C04C2F2000438
:10257000E068FDF73BFFE06810BD00BF43F6BD0C0F
:10258000C0F6000C00DF704780B500F0AFF8FDF733
:102590002FFFEFF3058028B9EFF3108010B9EFF3A8
:1025A000118038B16FF00500FDF71AFF6FF00500DC
:1025B00080BD00BF43F6D10CC0F6000C00DF80BD2B
:1025C00080B5FDF719FFEFF3058028B9EFF3108010
:1025D00010B9EFF3118038B16FF00500FDF700FF7F
:1025E0006FF0050080BD00BF43F6312CC0F6000C33
:1025F00000DF80BDB0B50D460446FDF713FFEFF3D5
:10260000058028B9EFF3108010B9EFF3118038B1CD
:1026100020466FF00501FDF713FF6FF00500B0BD18
:1026200043F6D52C2046C0F6000C294600DFB0BD8D
:1026300010B50446FDF700FFEFF3058028B9EFF36E
:10264000108010B9EFF3118040B120466FF0050102
:10265000FDF7F6FE6FF0050010BD00BF43F6BD3C70
:102660002046C0F6000C00DF10BD000010B5044687
:10267000FDF7E8FEEFF3058028B9EFF3108010B9FD
:10268000EFF3118040B100206FF005010024FDF749
:10269000D7FE204610BD00BF43F6914C2046C0F641
:1026A000000C00DF10BD000010B50446FDF7CEFEA3
:1026B000EFF3058028B9EFF3108010B9EFF3118024
:1026C00040B120466FF00501FDF7BAFE6FF005003E
:1026D00010BD00BF43F6395C2046C0F6000C00DF99
:1026E00010BD0000FEE70000FEE70000704700009C
:1026F000B0B50C460546FDF775FE28462146BDE8F7
:10270000B040FFF7EFBF00002DE9F041002818BFEF
:10271000002907D100230024FDF772FE2046BDE802
:10272000F08100BF042AF5D2034601F10F0653F8E9
:10273000085F26F0070C5C6824F003061E44AE1BFD
:10274000664521D22B68002BE4D06C6824F0030688
:102750002E449E1B664519D21D68002DDAD05C6898
:1027600024F003061E44AE1B66450DD22B68002BD9
:10277000D0D06C6824F003062E449E1B664505D21B
:102780001D68002DD7D1C5E7AE4601E09E462B4619
:10279000D0E90058461956F8047C08EB0C05AF4206
:1027A000456003D2A6F1080465605C6854B124F06A
:1027B0000304E51844F803E04CEA02071D602B46C9
:1027C0006F6002E04CEA02075F6003F108042346F1
:1027D000FDF716FE2046BDE8F081000010B5002888
:1027E00018BF002906D100220024FDF711FE204663
:1027F00010BD00BFA1F1080300F10804A34215D0E9
:102800002268002AEFD09A421AD01468002CEAD02D
:102810009C4219D02268002AE5D09A4210D0146850
:10282000002CE0D09C429446EAD10EE0C268436896
:1028300022F003029A1A42600022C2600EE000BF3A
:10284000A446144601E000BF9446D4E9002344683E
:1028500023F00303E31A4360CCF800200122012493
:10286000FDF7D6FD204610BD10B5D8B110F0070217
:1028700018D1182916D311F0070213D10B18A3F1A0
:1028800008048460002443F8084C836810224260E6
:102890005A60C460012201240160FDF7BBFD20469F
:1028A00010BD00BF00220024FDF7B4FD204610BD7E
:1028B000B0B500281AD000F1140151E8004F14B946
:1028C000BFF32F8F04E0226841E8002303B1F4E74F
:1028D0003CB1011D51E8002F531C41E8003505B102
:1028E000F8E72146FDF78EFD2046B0BD002000210F
:1028F0000024FDF787FD2046B0BD0000B0B50028DC
:1029000022D0C26891421FD3026991421CD200F1C9
:10291000140213680B60BFF35F8F52E8003F0C682E
:102920009C42F6D142E8001505B1F2E7021D52E8DB
:10293000003F5C1E42E8004505B1F8E70022002494
:10294000FDF762FD2046B0BD6FF003026FF0030497
:10295000FDF75AFD2046B0BD2DE9F0410E46002896
:102960004FF0000118BF002E02D10846BDE8F081EB
:102970001446002AF9D01F46002BF6D004FB06713E
:102980004FF00008C0E90417314622463B46C0E933
:102990000068C0E90247FDF739FD701E0CD010F049
:1029A0000302A6F1020119D03819012A38600BD1AF
:1029B0000746084612E000BF3D460121C5F80080E9
:1029C0000846BDE8F08100BF0719022A076001D15F
:1029D000F01E03E03A193A60301F174603293D46BE
:1029E00013D3610004EB4402A30000BF3E193E6014
:1029F00026447D183D512644BD1847F8145035191A
:102A0000FE18BE5004382F46F0D10121C5F80080D1
:102A10000846BDE8F0810000002808BF70472DE996
:102A2000F041044600274FF0010800E024B3E078AD
:102A3000254664690007F9D5284600212F76FDF761
:102A400007FDA8680028F1D0284600F08BFB002184
:102A50000022064600F0D6FDF06AEE602F610028E5
:102A6000686118BF056128460121F56285F8188064
:102A7000FDF7DEFCDAE700BFBDE8F041704700007B
:102A8000C278920758BF7047C06890F821C0C36AE7
:102A900002E000BF5B698BB1DA789207FAD59A68D9
:102AA0008A4208BF9268002AF4D092F920204FFA97
:102AB0008CFC6245C8BF9446ECE700BF90F820103C
:102AC0005FFA8CF2914201D1704700BF80F820C0BC
:102AD00000F08EBB2DE9F04140F20C04C2F200047C
:102AE000B4F8540004F15605D5E85F1F11B9BFF3DF
:102AF0002F8F04E04A1EC5E8532F03B1F4E7090401
:102B000032D004F15A0640F265170FF268080EE061
:102B1000B4F85400D5E85F1F11B9BFF32F8F04E05C
:102B20004A1EC5E8532F03B1F4E709041CD0D6E8C8
:102B30005F1F4A1C904200D80022C6E8532F03B101
:102B4000F5E7E06D89B250F8210068B101780F31E6
:102B5000C9B20829DCD827FA01F2D207D8D058F830
:102B6000211009688847D3E70020BDE8F04100F054
:102B70006FB900BF6C0000206C00002070000020C6
:102B80006C0000206C000020740000207800002001
:102B90006C0000207C00002070B540F20C02C2F2F4
:102BA0000002B2F8543002F15601D1E85F4FA3425F
:102BB00002D8BFF32F8F04E0651CC1E8565F06B151
:102BC000F3E7A1B29942014614D202F15800D0E8CD
:102BD0005F4F651CAB4200D80025C0E8565F06B1C8
:102BE000F5E7D06DA3B240F82310507A40B1012030
:102BF000907270BD0220BDE87040FFF779BD00BF44
:102C00004EF60450CEF200004FF08051016070BDCE
:102C1000704700002DE9F04381B040F20C08C2F289
:102C20000008D8F82C401CB1E0690138E06103D0FD
:102C300001B0BDE8F08300BF012708F11C064FF08A
:102C4000000900BF607813384FEA3010082800F2FE
:102C5000AD80DFE800F005AB235B759309274100E9
:102C60002046FDF7B9FBA1E02078F128204611D1DC
:102C7000204600BFC0680178F1290BD1C0680178F7
:102C8000F12907D1C0680178F12903D1C068017822
:102C9000F129EFD0FDF7C0FB88E000BF2046FDF72B
:102CA000F3FB83E02078F128204611D1204600BFB5
:102CB000C0680178F1290BD1C0680178F12907D1EA
:102CC000C0680178F12903D1C0680178F129EFD0FB
:102CD000FDF7A4FB6AE000BF2078F128204611D15F
:102CE000204600BFC0680178F1290BD1C068017887
:102CF000F12907D1C0680178F12903D1C0680178B2
:102D0000F129EFD0FDF78CFB50E000BF2078F128CF
:102D1000204611D1204600BFC0680178F1290BD1AF
:102D2000C0680178F12907D1C0680178F12903D181
:102D3000C0680178F129EFD0FDF750FB36E000BF05
:102D400020782546F12811D1254600BFED68287866
:102D5000F1280BD1ED682878F12807D1ED682878A3
:102D6000F12803D1ED682878F128EFD028462146D4
:102D7000FFF786FE2846FDF759FB17E02078F1287B
:102D8000204611D1204600BFC0680178F1290BD13F
:102D9000C0680178F12907D1C0680178F12903D111
:102DA000C0680178F129EFD0FDF754FBA06B016AF0
:102DB0002046FDF773FBE06820B1A168002981601F
:102DC00018BFC86094F92010304667708268E2B17D
:102DD00092F920308B4213DB9068A8B190F9203033
:102DE0008B421BDB826882B192F920308B4207DB79
:102DF000906848B190F920308B421346E6DA0EE035
:102E0000034610460BE000BF104600F10801C4E97C
:102E100002900C60246954B914E000BF134600F11D
:102E20000C01C4E902039C600C60246954B1E069A0
:102E300000283FF407AF00206061C8F82C4001B0C3
:102E4000BDE8F0830024C8F82C4001B0BDE8F08351
:102E500070B540F20C06C2F200060446327A706980
:102E6000002C53D094F92010022A2DD190F9202063
:102E7000914229DD0121417006F11C018B68002B74
:102E800000F09D8093F92050954240F3938099681B
:102E9000002900F0938091F92050954240F3AA80D8
:102EA0008B68002B00F08B8093F92050954240F303
:102EB00081809968002900F0818091F92050954225
:102EC0001D46DBDC97E000BF0120607006F11C00AE
:102ED0008268002A53D092F920308B424ADB9068F6
:102EE00000284BD090F920308B424FDB8268002ABB
:102EF00045D092F920308B423CDB906800283DD0D1
:102F000090F920308B421346E2DA40E0022A44D1A5
:102F1000746A002C41D094F9201090F9202091423D
:102F2000D8BF70BDE16831B1A368002B8B6018BFBA
:102F3000D9600021E1600121417006F11C018B681C
:102F40008BB393F92050954228DD996851B391F9DC
:102F5000205095423ADD8B682BB393F9205095426F
:102F60001CDD9968F1B191F9205095421D46E6DCCF
:102F70002DE000BF0346104609E000BF10460022C6
:102F800000F10801C4E9022006E000BF134600F189
:102F90000C01C4E902039C600C6070BD0D4619462B
:102FA00015E000BF1946002301F10802C0E9023113
:102FB00012E000BF0D4619461DE000BF1946002370
:102FC00001F10802C0E902311AE000BF1D4601F11B
:102FD0000C02C0E90215A8601060FDF75BFAE0780A
:102FE00002214007617054BF0320022080F314883F
:102FF00012E000BF1D4601F10C02C0E90215A860F5
:103000001060FDF747FAE07802214007617054BF75
:103010000320022080F31488BFF36F8F2046B46131
:10302000BDE87040FDF738BA10B50446FFF7F0FD73
:10303000A07800218207218012D5216BC00607D419
:1030400040F20C00C2F20000406FFFF7C7FB07E040
:1030500040F20C00C2F20000D0F88400FFF74EFCF2
:10306000A078C00708BF10BD40F20C01C2F20001F9
:10307000D1F8880020B12146BDE81040FFF73EBCE2
:10308000D1F880002146BDE81040FFF7A7BB000043
:1030900070B585690446002D5CD0284600210026C5
:1030A000FDF7FCF9A86B29690662EA69501C40F239
:1030B0000C00C2F2000007D071B1CB6913446A69F9
:1030C000CB614A6152B90DE06A69002918BF4A61B3
:1030D00022B9016307E000BF6A691AB111610021DA
:1030E000696100E0C1620021E9610121697095F91F
:1030F00020101C308268E2B192F920308B4213DB41
:103100009068A8B190F920308B4219DB826882B1B7
:1031100092F920308B4207DB906848B190F920305B
:103120008B421346E6DA0CE00346104609E000BF86
:103130001046002200F10801C5E9022006E000BFA8
:10314000134600F10C01C5E902039D600D60A06902
:10315000FDF79CF96078232818BF70BDA068002196
:10316000816170BD014680688268002A8A6018BF4C
:10317000D1600021C160704791F920C08368E3B13C
:1031800093F92020624513DB9868A8B190F92020BC
:10319000624519DB836883B193F92020624507DB20
:1031A000986848B190F9202062451A46E6DA0CE0AA
:1031B0000246184609E000BF184600F10802002345
:1031C000C1E90230116070471A46C1E902029160FC
:1031D00000F10C0211607047C168002908BF7047F8
:1031E0008268002A8A6018BFD1600021C1607047E0
:1031F000B8B101460A78F12A14D1C96889B10A78B0
:10320000F12A0FD1C96861B10A78F12A0AD1C968D7
:10321000002908BF70470A78F12A03D1C96800293C
:10322000E8D17047C26822B18368002B936018BF51
:10323000DA6090F920C08B68EBB193F920206245E9
:1032400014DB9968B1B191F9202062451ADB8B68D3
:103250008BB193F92020624508DB996851B191F94F
:10326000202062451A46E6DA0DE000BF0A461946FC
:1032700009E000BF1946002301F10802C0E902314C
:10328000106070471A46C0E90212906001F10C020A
:103290001060704770B54178332923D190F823200E
:1032A000416A930712D4D20700F128021CD152E8D8
:1032B000006F0E4203D1BFF32F8F002605E026EAF0
:1032C000010342E8003404B1F1E71DE0866A06EA32
:1032D0000103591A18BF0121D207B3FA83F308BFBB
:1032E000590989B170BD00BF52E8006F06EA0103B9
:1032F0008B4203D0BFF32F8F002605E026EA01039F
:1033000042E8003404B1EFE7002E08BF70BD31463B
:103310000546FDF7C3F8A86B29690662EA69501CE7
:1033200040F20C00C2F2000008D079B1CB6913441E
:103330006A69CB614A615AB90EE000BF6A69002927
:1033400018BF4A6122B9016307E000BF6A691AB178
:1033500011610021696100E0C1620021E961012180
:10336000697095F920101C308268E2B192F9203022
:103370008B4213DB9068A8B190F920308B4219DBA7
:10338000826882B192F920308B4207DB906848B1A5
:1033900090F920308B421346E6DA0CE003461046E3
:1033A00009E000BF1046002100F10804C5E9021041
:1033B00006E000BF134600F10C04C5E902039D605E
:1033C000686A95F8231032462B462560BDE87040A8
:1033D000FDF754B80121417040F20C01C2F2000126
:1033E00090F920C01C318B68EBB193F92020624525
:1033F00014DB9968B1B191F9202062451ADB8B6822
:103400008BB193F92020624508DB996851B191F99D
:10341000202062451A46E6DA0DE000BF0A4619464A
:1034200009E000BF194601F108020023C0E902319A
:10343000106070471A46C0E90212906001F10C0258
:103440001060704770B544F27834C0F6000442F260
:10345000E960A26DC0F60000666E002100F050FE2B
:1034600040F20C05C2F20005A8627EB1B047002808
:103470001CBF002070BDD4E91720E96C00F040FEAD
:10348000A864002818BF012070BD00BF012070BDD6
:10349000C17802224907427054BF0321022181F3FF
:1034A000148840F20C01C2F20001BFF36F8F8861F3
:1034B000FCF7F2BF2DE9F04140F20C08C2F200081F
:1034C00098F808200E46911EB1FA81F1D8F8242010
:1034D0004909002A18BF012201EA0204012C40F028
:1034E0008D80D8F81450074628463146FCF7B4FFC3
:1034F000701C6F7008D0D8F82C201AB3D369B3426F
:1035000028D900214FE000BF08F1300100220B460E
:103510001B6810465BB11A69184642B1176910461C
:103520002FB13A69384602F11003002AF0D14FF06A
:10353000FF32EA6100220028C5E9042018BF00F12B
:1035400010013FE00020EE61C5E9040008F12C0104
:1035500038E000BF10460169F61AE1B1CA69964227
:1035600014D30869B61AA8B1C26996421AD3016980
:10357000B61A81B1CA69964208D30869B61A48B129
:10358000C3690246B342E6D90DE000BF0A460146D0
:1035900009E000BF084600F110010022EE61C5E914
:1035A00004200FE0024601F11000EE61C5E904219C
:1035B000002908BF08F12C00D1690560881BD06183
:1035C00002F114010D60D8F8240081680029C8F8C0
:1035D00024101CBF08F11C02CA600021C160C17820
:1035E00002224907427054BF0321022181F314884B
:1035F000BFF36F8FC8F81800FCF74EFF2046BDE8F8
:10360000F081000070B514460D460646FCF746FFF3
:10361000B16B30460D62F2693169531C08D0A9B113
:10362000CB6913444269CB614A618AB91AE000BF91
:103630004269002918BF4A6152B940F20C02C2F235
:10364000000211630021C16144B914E042694AB12A
:103650001161002141610021C16164B1BDE8704088
:10366000FFF7F6BB40F20C02C2F20002D162002169
:10367000002CC161F2D10121417040F20C01C2F273
:10368000000190F920201C318B68E3B193F9206090
:10369000964213DB9968A9B191F92060964219DB33
:1036A0008B6883B193F92060964207DB996849B132
:1036B00091F9206096421E46E6DA0CE00E46194665
:1036C00009E000BF194601F108020023C0E90231F8
:1036D000106070BD1E4601F10C02C0E90216B06018
:1036E000106070BDB0B5FEF7A5FA40F20C05C2F24D
:1036F0000005E8680130E860FFF78CFA0020FFF76A
:10370000A7FB286D002818BF8047296C51B3AA6910
:10371000E86B824206D0D069EA63002818BF0146F0
:10372000104601E0D16911B10139D1611AD1297A6C
:10373000022917D16C6AACB194F8201090F82000DF
:10374000814218BFB0BD2046FFF746FDE86BFFF78A
:1037500041FEE86BFCF79EFE2046FFF799FE286CC1
:10376000EC63E061B0BD0000884700F001F80000A4
:10377000FCF77AFE43F62D6CC0F6000C00DF00204B
:103780004FF0FF31FCF76EFEFEE7000070B50D460E
:103790000446FCF76DFEEFF3058030B9EFF31080BF
:1037A00018B9EFF31180002830D08CB1002D0FD460
:1037B0002078F1280CD16078042813D120466FF0CE
:1037C00002016FF00206FCF751FE304670BD00BFEB
:1037D00020466FF003016FF00306FCF747FE30460A
:1037E00070BD00BF04F1280050E8001F41EA050643
:1037F00040E8006202B1F7E72046FFF7CDF9204626
:103800003146FCF737FE304670BD00BF43F6C56C4D
:103810002046C0F6000C294600DF70BD70B5144686
:103820000D460646FCF728FEEFF3058028B9EFF3B6
:10383000108010B9EFF3118040B100206FF0050146
:10384000FCF714FE6FF0050070BD00BF44F2090CD8
:103850003046C0F6000C2946224600DF70BD00004D
:1038600070B514460D460646FCF712FEEFF30580D0
:1038700028B9EFF3108010B9EFF3118040B10020A8
:103880006FF005010024FCF7EDFD204670BD00BF80
:1038900044F2011C3046C0F6000C2946224600DFE7
:1038A00070BD000010B540F20C00C2F20000047AB6
:1038B0002046FCF799FD204610BD000010B540F2EF
:1038C0000C04C2F20004E068FCF790FDE06810BD53
:1038D0002DE9F04140F20C07C2F20007387A58B1E6
:1038E000012800F09F804FF0FF30FCF779FD4FF08A
:1038F000FF30BDE8F08100BF07F108009C21FCF714
:10390000EEFC44F27838C0F60008D8E90202D8E9A3
:103910000B41B8F8103038642046FA65A7F85430E7
:10392000FEF7A2FF002818BFC7F88040D8E905417C
:10393000D8E907562046FEF797FFD7F880100028F1
:1039400018BF2146796728463146FEF78DFFD7F824
:103950008020002818BF2A46D8E90951BA672846AE
:10396000FEF782FFD8F83440D7F88010002818BF3F
:103970002946F9673CB12168D4E902232046FEF7C5
:10398000EBFFC7F88440D8F838403CB12168D4E94F
:1039900002232046FEF7E0FFC7F88840D8F83C40F5
:1039A0003CB12168D4E902232046FEF7D5FFC7F8D1
:1039B0008C40D8F840403CB12168D4E9022320462D
:1039C000FEF7CAFFC7F89040D8F844403CB12168E0
:1039D000D4E902232046FEF7BFFFC7F89440D8F889
:1039E00048403CB12168D4E902232046FEF7B4FFE9
:1039F000C7F89840D8F84C403CB12168D4E902237C
:103A00002046FEF7A9FFC7F89C40D8F850403CB1CB
:103A10002168D4E902232046FEF79EFFC7F8A040A4
:103A200001203872FCF7E6FC0020BDE8F0810000C0
:103A300010B540F20C04C2F20004207A01282FD104
:103A4000FFF700FD18B34EF62251CEF20001FF2021
:103A50000870087851F8162C80F0FF00B0FA80F05A
:103A6000C0F12000C2F30222824228BF501CFE2275
:103A7000824044F27830C0F60000406801F8032C20
:103A800040F27721C0F60001FEF7F8F880B14FF060
:103A9000FF304FF0FF34FCF7A3FC204610BD00BF01
:103AA0006FF00700FCF79CFC4FF0FF3010BD00BF2B
:103AB000FEF7E0F82061FEF7C3F804F11C00FFF701
:103AC00051FBFFF7E5FC02202072FCF797FC002079
:103AD00010BD000070B540F20C02C2F20002546941
:103AE000C4B378B30278F52A2CD1027ED2B3C3785E
:103AF000DE0702D0C668A64250D0002942D09A07FD
:103B00000FD5C26894F9203092F920609E4208DAFD
:103B10000546104682F820300E46FFF769FB314615
:103B2000284605460E46FCF77FFC53203146FFF73A
:103B3000C1FC68B328462146FFF71EFB6FF0010069
:103B400070BD00BF6FF003016FF00304FCF778FC59
:103B5000204670BD6FF00801FCF772FC4FF0FF309B
:103B600070BD00BFE16A0022C460026100294161AA
:103B700018BF0861E06201210176FCF759FC0020C2
:103B800070BD00BFFCF760FC6FF0020070BD00BFAD
:103B90002846FCF74BFC6FF0010070BDFF2A07D1EF
:103BA0006FF01101FCF74CFC6FF0020070BD00BF1C
:103BB000511C0176FCF73CFC002070BD10B504469A
:103BC00020B32078F52821D1207E002841D06169DA
:103BD000D4E90302002918BF0A61002A0EBFC1629E
:103BE0005161C16A90F8212001E000BF4969B9B173
:103BF000CB789B07FAD58B68002BF7D093F9203050
:103C000052B29342C8BF1A46F0E700BF20466FF099
:103C100003016FF00304FCF713FC204610BD00BF46
:103C200090F82010D3B299420CD080F82020FFF7F2
:103C3000DFFA07E02046FFF795FA6FF00201002255
:103C4000FFF7E0FCA0680028F4D100202076FFF701
:103C5000FFF8A0780021C007217009D040F20C01C4
:103C6000C2F20001D1F8940040B12146FEF746FEB1
:103C70002046FCF7E3FB002010BD00BFD1F8800018
:103C80002146FEF7ABFD2046FCF7D8FB002010BD17
:103C900070B558B14668F1022AD4D0E902510468DF
:103CA000002D3FD01C293FD100200DE0002600242C
:103CB00040F20C01C2F20001D1F8940000B3FEF70B
:103CC000F7FD054628B30120A87006F00F00F52186
:103CD000E87000202970C5E90140C5E9030068616A
:103CE000287628462146FCF7A5FB284670BD00BF74
:103CF00000206FF006010025FCF7A2FB284670BDEE
:103D0000D1F880001C210122FEF7FEFC05460028A8
:103D1000D9D100206FF004010025FCF791FB284663
:103D200070BD00BF0029C3D000206FF0090100253D
:103D3000FCF786FB284670BD70B540F20C01C2F25C
:103D400000014D69C5B178B10178F5290CD1017E2A
:103D5000D1B1C268AA421FD06FF00F01FCF770FB0F
:103D60006FF0020070BD00BF6FF003016FF003043D
:103D7000FCF766FB204670BD6FF00801FCF760FBA6
:103D80004FF0FF3070BD00BF6FF01001FCF758FB23
:103D90006FF0020070BD00BF01390176C9B2044660
:103DA000FCF756FB217E00291CBF002070BDD4E922
:103DB00004212046002918BF0A61002A0EBFE962CB
:103DC0005161E96A95F8212001E000BF496969B1B4
:103DD000CB789B07FAD58B68002BF7D093F920306E
:103DE00052B29342C8BF1A46F0E700BF806885F818
:103DF0002020A8B12046FFF7B5F900210022054692
:103E00000026FFF7FFFBE96AE56026610029616192
:103E100018BF0C6101212046EC622176FCF708FBFB
:103E200000200024FFF714F8204670BDB0B540F222
:103E30000C05C2F20005287A022841D1686A0028E0
:103E400008BFB0BD6C69E06AFEF7E6FD2046FFF7EB
:103E50001FF9686A8168002969621CBF05F11C02AC
:103E6000CA600021C160C17802224907427054BF74
:103E70000321022181F31488BFF36F8FA861FCF73F
:103E80000BFBEFF30980E178A0630020C9076861AC
:103E900008D12046FFF7C8F82046BDE8B040FCF73F
:103EA000DFBA00BF04216170696BE0600029A16086
:103EB00018BFCC606C632046BDE8B040FCF7D0BAB8
:103EC000B0BD000070B578B100290DD40278F12A98
:103ED0000AD14278042A0FD16FF002016FF0020478
:103EE000FCF7C4FA204670BD6FF003016FF00304C5
:103EF000FCF7BCFA204670BD00F1280252E8003FF2
:103F000043EA010442E8004505B1F7E74178332967
:103F100040F0748090F82330416A9E0710D4DB078C
:103F20001CD152E8005F0D4203D1BFF32F8F002553
:103F300005E025EA010342E8003606B1F1E71DE09D
:103F4000156805EA0102511A18BF0121DB07B2FA10
:103F500082F208BF510989B150E000BF52E8005F0A
:103F600005EA01038B4203D0BFF32F8F002505E044
:103F700025EA010342E8003606B1EFE7002D3DD007
:103F800090F823102C4689075CBF416A25EA01049A
:103F900029460646FCF782FAB16B30460D62F2699B
:103FA0003169531C06D089B1CB6913444269CB6196
:103FB0004A610CE04269002918BF4A6142B940F2E7
:103FC0000C02C2F2000211630BE000BF42691AB199
:103FD00011610021416104E040F20C02C2F20002D2
:103FE000D1620021C1613046FEF732FF706A96F857
:103FF00023102A463346FCF741FA30462146FCF7A7
:1040000039FA204670BD0000F0B581B040F20C03D3
:10401000C2F200035C69CCB1B0F1FF3F20DD8B0739
:1040200028D4CB0704F1280338D153E8005F0542B8
:1040300003D1BFF32F8F002505E025EA000643E8F2
:10404000006707B1F1E715BB3AE000BF00206FF051
:104050000801FCF70BFA4FF0FF35284601B0F0BD20
:1040600020466FF003016FF00305FCF7FFF92846C7
:1040700001B0F0BDA56A05EA00031F1A18BF0127A9
:10408000CE07B3FA83F308BF5F09CFB9C5B12A469B
:104090002346FCF7F3F9284601B0F0BD53E8005F72
:1040A00005EA0006864203D0BFF32F8F002505E006
:1040B00025EA000643E8006707B1EFE7002DE6D1E7
:1040C000B2B105460E461746FCF7DCF933203946F7
:1040D000656284F82360FFF7EDF9002804BF2046ED
:1040E000FCF7D2F96FF00105284601B0F0BD00BF22
:1040F000FCF7C6F96FF00205284601B0F0BD0000DC
:104100002DE9F04F81B028B172B1556805F0060372
:10411000062B2FD100206FF003010024FCF7A2F939
:10412000204601B0BDE8F08F00274FF018090026A7
:104130004FF000080025002444F27832C0F6000257
:104140001278D2070CBF45F0020545F004052EB1E8
:10415000482E35D332466FF3DE028ABB40F20C02A2
:10416000C2F2000200917CB34FF0000A002C49D14A
:1041700097E000BFEF021FD402F1080898E8900111
:10418000D2F800C0D2E9056954B3502F2AD1B8F152
:10419000000F03D05FEA487212D18EB1B9F1000F5F
:1041A0006ED0A9F1390212F1390F67466BD80020A1
:1041B0006FF00C01B1E700BF00206FF00601ACE723
:1041C00000206FF00B01A8E78346D2F8880068B1A1
:1041D000FEF76EFB04464FF0010A584694B960E0C2
:1041E000002FD4D000206FF0090196E7D2F88000AC
:1041F000502101224FF0010AFEF786FA0446584684
:10420000002C4ED0B8F1000F4BD1834676B140F26E
:104210000C00C2F20000406F31460022FEF774FA33
:104220008046B8F1000F584639D116E040F20C0232
:1042300044F27831C2F20002C0F60001D2F88400E4
:104240004E6DD8B1FEF734FB8046002818BF0AF146
:10425000100AB8F1000F584621D15FEACA7101D1A6
:1042600000241CE040F20C01C2F200018346D1F8A8
:10427000880068B12146FEF741FB0EE0506FCBE7A6
:104280004FF018096746002B7FF461AF54E700BF79
:10429000D1F880002146FEF7A1FA002458464AF0E2
:1042A000020A002C64D040F2F111218005F00F01C8
:1042B000E1700021C4E90171C4E90311C4E90511E9
:1042C000E161C4F82310C4F82710C4F82B1084F857
:1042D0002F1008EB06010546E06342F6A560403961
:1042E000CEF25A20C4E90D61C8F8000044F27830DB
:1042F000C0F600000078FD22400784F802A084F890
:10430000209084F8219084F82220C4F8308009D5C8
:1043100026F00301442905D008F104004439CC22D9
:10432000FBF7D5FFA66B38213046FBF7D8FF43F2E9
:104330006970C0F600004FF08071C6E90E01009868
:1043400040F20C02C6E9080543F29520C0F60000D1
:10435000E16BC2F20002106620463A46FCF77EF896
:104360002046FEF775FD204601B0BDE8F08F00BF86
:1043700000206FF00401D0E600000000E803000018
:1043800005000000B802002004000000000000004A
:10439000000000000000000000000000000000001D
:1043A00000000000C802002000080000000000001B
:1043B00000000000000000000000000000000000FD
:1043C00000000000000000000000000000010000EC
:1043D000744400080000000000000000000000001D
:1043E0000000000000000000CC0A00201C0B002090
:1043F00000000000000000000000000000000000BD
:1044000000000000000000000000000000000000AC
:10441000000000000000000000000000000000009C
:104420000000000000000000010203040607080964
:104430000000000001020304010202030405060754
:1044400008090A0B0C0D0E0F10100000A9440008FB
:10445000000000000000000000000000000000005C
:1044600080010000180000000000000000000000B3
:10447000000000000000000000000000CC0A002046
:1044800050000000200B002000010000010000008F
:104490000000000000000000303132333435363780
:1044A00038394142434445460069725461736B0098
:1044B0005254582056352E392E300000E044000862
:1044C00000000020B00000005001000890450008E6
:1044D000B0000020780D000070010008000000000E
:1044E000010000001000000000127A00B044000833
:1044F0001050FC020000000000000000000000005E
:1045000000000000000000000000000000000000AB
:10451000000000000000000000000000000000009B
:10452000000000000000000000000000000000008B
:10453000000000000000000000000000000000007B
:10454000000000000000000000000000000000006B
:10455000000000000000000000000000000000005B
:10456000000000000000000000000000000000004B
:10457000000000000000000000000000000000003B
:10458000000000000000000000000000000000002B
:04000005080000ED02
:00000001FF
