:020000040800F2
:1000000080070020B5010008F51B0008ED1B000863
:10001000F11B0008C1030008091C000800000000D3
:10002000000000000000000000000000FD1B0008B0
:10003000C503000800000000F91B0008011C0008AF
:10004000CF010008CF010008CF010008CF01000850
:10005000CF010008CF010008CF010008CF01000840
:10006000CF010008CF010008CF010008CF01000830
:10007000CF010008CF010008CF010008CF01000820
:10008000CF010008CF010008CF010008CF01000810
:10009000CF010008CF010008CF010008CF01000800
:1000A000CF010008CF010008CF010008CF010008F0
:1000B000CF010008CF010008CF010008CF010008E0
:1000C000CF010008CF010008CF010008CF010008D0
:1000D000CF010008CF010008CF010008CF010008C0
:1000E000CF010008CF010008CF01000800F002F89E
:1000F00000F050F814A696E8000CB244B344DA4578
:1001000001D100F047F8BAE80F000FA696E83000DA
:10011000A5EB040504EB0607AAEB0704A7F101070A
:100120004FEA15154FEA3414A4F10104AC4201D38F
:1001300000F030F813F0010F18BFFB1A43F0010371
:1001400000F001F8DBE71847DC1E0000FC1E000091
:10015000103A24BF78C878C1FAD8520724BF30C8F3
:1001600030C144BF04680C60704700007047000055
:100170000023002400250026103A28BF78C1FBD8B0
:10018000520728BF30C148BF0B6070471FB51FBD65
:1001900010B510BD00F058F81146FFF7F7FF01F059
:1001A00035FD00F076F803B4FFF7F2FF03BC00F072
:1001B0007DF800000948804709480047FEE7FEE750
:1001C000FEE7FEE7FEE7FEE7FEE7FEE7FEE7FEE707
:1001D00004480549054A064B70470000051C000805
:1001E000ED0000088001002080070020800300202F
:1001F000800300204FF0000200B513469446964657
:10020000203922BFA0E80C50A0E80C50B1F1200129
:10021000BFF4F7AF090728BFA0E80C5048BF0CC0D7
:100220005DF804EB890028BF40F8042B08BF704735
:1002300048BF20F8022B11F0804F18BF00F8012BA7
:100240007047704770477047754600F02BF8AE4610
:1002500005006946534620F00700854618B020B5D2
:10026000FFF7B6FFBDE820404FF000064FF0000753
:100270004FF000084FF0000BAC46ACE8C009ACE80A
:10028000C009ACE8C009ACE8C00921F007018D46FF
:10029000704710B50446AFF300802046BDE810401B
:1002A000FFF781BF00487047100000200149182067
:1002B000ABBEFEE72600020070470000B0B5044662
:1002C00000688168C90709D0816821F00101816057
:1002D00000F01CFD21688968C90701D10020B0BD6C
:1002E000054602E08068C007F8D000F00FFD411B12
:1002F00020680329F6D38168C907F3D0A06A40F0CB
:100300001000A062E06A40F00100E0620120B0BD90
:10031000B0B582B004460020019021688A68D207F7
:100320004BD1886840F00100886040F20800C2F2BA
:10033000000000684DF68361C4F21B31A0FB01018F
:10034000880C01900198A0B10198013801900198A2
:1003500078B1019801380190019850B101980138A5
:100360000190019828B10198013801900198002866
:10037000EAD100F0CBFC21688968C9071CD1054689
:1003800003E000BF8068C00716D100F0BFFC411B2E
:1003900020680329F6D38168C907F3D1A06A40F029
:1003A0001000A062E06A40F00100E062002084F8E2
:1003B0002400012002B0B0BD002002B0B0BD00009A
:1003C000FEE700007047000070B582B004460020D0
:1003D000019094F82400012802D1022002B070BDDF
:1003E000012084F824002046FFF768FF2046FFF72D
:1003F0008FFF28B1002184F8241002B070BD00BF27
:100400000646A06A41F2021188430230A06240F21F
:100410000800C2F200000568022000F021FDB5FBD3
:10042000F0F0400001900198A8B100BF0198013898
:100430000190019878B1019801380190019850B16C
:10044000019801380190019828B101980138019074
:1004500001980028EAD12068816841F00801816094
:1004600000F054FC21688A6812070FD4886840F0B5
:100470000400886000F04AFC21688968490715D4A7
:1004800001216FF00302304622E000BF054602E082
:1004900088680007EAD500F039FC401B21680B286A
:1004A000F6D388680007F3D50EE000BF054602E0EA
:1004B00080684007E4D500F029FC411B20680B2927
:1004C000F6D381684907F3D5012010216FF012029D
:1004D000A36A1A401143A162002184F8241002B0DB
:1004E00070BD000070B581B00022009290F8242009
:1004F000012A03D10221084601B070BD4A680123D8
:10050000062A02EB820E80F8243007D8D0F800C00B
:100510006FF004030CF134060CE000BFD0F800C00B
:100520000C2A87BF0CF12C066FF040030CF130064B
:100530006FF022030EEB03021F23346803FA02F567
:100540000B6824EA050503FA02F22A433260092BFC
:1005500003EB43021AD9DCF80C601E3A07258968C0
:100560009540AE43914023F001023143102ACCF86C
:100570000C1015D142F20041C4F201018C4517D094
:10058000816A41F02001816201210AE0DCF810302B
:10059000072689689640B34391401943CCF8101060
:1005A0000021002280F82420084601B070BD00BF61
:1005B00089680902F4D4DCF80810102B41F400011A
:1005C000CCF80810ECD140F20801C2F20001096831
:1005D0004DF68362C4F21B32A1FB0212910C01EBB7
:1005E00081014900009100990029D9D00099013971
:1005F000009100990029D3D0009901390091009908
:100600000029CDD000990139009100990029C7D067
:10061000009901390091009900294FF00001E5D1BE
:10062000BFE700000068C06C70470000002804BFEE
:1006300001207047B0B50446806A28B121688868F7
:10064000C0070CD115E000BF0020E06284F8240050
:10065000204600F097F821688868C00709D08868AC
:1006600020F00100886000F051FB21688A68D20701
:1006700026D1A06AC0063AD4A06A41F20212904381
:100680000230A062E069D4E9013240EA030C531E53
:10069000B3FA83F35D091346B2F5807F18BF2B02CE
:1006A000207D257B01284CEA45002CD135B3A56A75
:1006B00045F02005A562E56A45F00105E56222E006
:1006C000054602E08868C007D3D000F01FFB401B3E
:1006D00021680328F6D38868C007F3D0A06A40F0E9
:1006E0001000A062E06A40F00100E062A06AA06A27
:1006F00040F01000A0620120B0BD00BFA56903EB6F
:100700004533A3F5C0534D68B2F5807F25F46945A4
:1007100043EA05034B608B684FF2FD75CFF6E17538
:1007200003EA050343EA00038B6001D0012A07D1E5
:1007300022690023CFF6F07303EB025201E000BF01
:100740000022CB6A23F470031A43CA62896840F618
:10075000FE62CFF61F721140814207D10020E06295
:10076000A16A012262F30101A162B0BDA06A40F05A
:10077000100020F00200A062E06A40F00100E06298
:100780000120B0BD704700002DE9F04182B0002784
:100790000D460446019700F0B9FA21688A68D2052F
:1007A00044D406464868C00503D4C86A10F4700FE4
:1007B00046D040F20800C2F20000076842F29248B8
:1007C0000220C1F2492800F04BFB216844F62413B3
:1007D0000A69B7FBF0F0C2F292431A4206D1CA6826
:1007E00044F62413C0F292031A425BD00A6912EA5B
:1007F000080F07D1CA6842F29243C0F249031A4275
:1008000000F0C0800A6949F24923C0F224031A4269
:100810004FF0FC0254D1CF681F4208BF5422019B05
:1008200002FB00F7BB4250D3C3E000BFA06A40F018
:100830002000A06284F82470012002B0BDE8F0819D
:100840000868800700F1B580681C00F0A880FDB939
:100850000868800770D50868800700F1AA800868DA
:10086000800769D50868800700F1A38008688007C1
:1008700062D50868800700F19C80086880075BD516
:1008800008688007E4D594E00868800700F191804B
:1008900000F03CFA801B2168A842F5D9086880075F
:1008A000F2D449E00A6912EA080F4FF0290207D191
:1008B000CB6842F29247C0F249073B4208BF14227C
:1008C000019B02FB00F7BB4273D2681C52D05DBB98
:1008D0000198B84230D30198013001900198B84294
:1008E00067D20198B84227D301980130019001984E
:1008F000B8425ED20198B8421ED3019801300190EF
:100900000198B84255D20198B84215D301980130E8
:1009100001900198B842DBD34BE000BF0198013051
:1009200001900198B84235D200F0F0F9801BA8423E
:10093000F4D90198B842F1D2A06A40F00400A06254
:10094000002084F82400032002B0BDE8F08100BF3D
:100950000198013001900198B8422AD201980130E3
:1009600001900198B84224D2019801300190019879
:10097000B8421ED20198013001900198B842E7D3E5
:1009800017E000BF5422019B02FB00F7BB429CD33F
:100990000FE000BF21680CE00868800709D40868F0
:1009A000800706D4086880075CBF08685FEA80702B
:1009B000F2D56FF012000860A06A40F40070A062E7
:1009C000886800F46020B0F5602F01D1207B18B159
:1009D000002002B0BDE8F081A06A20F48070A0621F
:1009E000A06AC004F4D4A06A40F00100A062002014
:1009F00002B0BDE8F081000010B5044690F8240074
:100A0000012804BF022010BD012084F824002046E4
:100A1000FFF77EFC20B1002084F82400012010BDE7
:100A200042F2044C2068A16AC4F2010C40F2013287
:100A300091430CF57F7201F580719042A16229D03B
:100A4000A16A21F48011A1624168490504D5A16A17
:100A5000012363F30D31A162A16A0023C9044FF0A1
:100A6000000144BFE16A21F00601E1626FF002017A
:100A700084F824300160816801F46021B1F5602FB1
:100A80001BD1904214D0816841F4A0018160002004
:100A900010BD00BFDCF8001011F4702FD0D0A16A97
:100AA00041F48011A162DCF800104905CFD4D3E7EE
:100AB000DCF8001011F4702FE5D0816841F480114A
:100AC0008160002010BD0000B0B5044600F01EF9A2
:100AD000054640F20000C2F200000078611C18BF19
:100AE000044400BF00F012F9401BA042FAD3B0BD8D
:100AF0002DE9F04F82B00E68002E00F0FD8041F22B
:100B00000042C4F20102042340F2004E904208BFAA
:100B100003234FF6FF7CC4F2010E0093002401234F
:100B2000C1F2100C4FF0000A4FF000094BE000BF7B
:100B300041F20002C4F20102009F904208BF022766
:100B400004F00C030F229A402BEA020207FA03F387
:100B50004FEA9A051A4346F825204E6840F20C45A4
:100B6000F202DEF8082054BF22EA080242EA080234
:100B7000C4F20105CEF808202A68B30254BF22EA65
:100B8000080242EA08022A60B303DEF8042054BFD8
:100B900022EA080242EA0802F303CEF80420DEF853
:100BA00000204FF0010354BF22EA080242EA080283
:100BB000CEF800200E680AF1010A36FA0AF204F1B2
:100BC000040400F0998003FA0AFB16EA0B08F1D03E
:100BD0004E68664512DC122E56D8DFE806F0350B5B
:100BE0004D495555555555555555555555555545D9
:100BF000510000BFD1F80C9046E000BF4FF6FF72E5
:100C0000C1F2210296420FDC0022C1F2110296428B
:100C10001AD00022C1F21202964215D00022C1F26F
:100C20002102964210D02FE00022C1F22202964209
:100C30000AD00022C1F23102964205D00022C1F250
:100C40003202964220D100BF8A684AB1012A14BFFD
:100C5000C0F814B0C0F810B04FF0080914E000BF9D
:100C60004FF0040910E000BFCA6802F104090BE06C
:100C70004FF0000908E000BFCA6802F1080903E06C
:100C8000CA6802F10C0900BF02462646B8F5807F0B
:100C900024BF0432203E17680F25B54027EA05051A
:100CA00009FA06F635431560CA79D2067FF582AF98
:100CB00041F21803C4F202031A68AEF57E7642F0E0
:100CC00001021A601A6802F001020192019A2AF0E8
:100CD000030256F802B040F60002C4F2010290424C
:100CE00008D040F60042C4F2010290427FF420AFE7
:100CF000012725E7002723E702B0BDE8F08F0000B9
:100D0000002A08BF090401617047000040F2781012
:100D1000C2F200000068704740F2000040F2781113
:100D2000C2F20000C2F2000100780A6810440860B4
:100D30007047000080B542F20000C4F20200016872
:100D400041F010010160032000F07AF80F2000F05C
:100D500005F800F027F8002080BD000070B540F2D3
:100D60000006C2F2000640F208013278C2F2000129
:100D70004FF47A730968B3FBF2F20446B1FBF2F167
:100D8000084600F0EFFB0F2C4FF0010508D838B9EA
:100D90004FF0FF3021460022002500F025F8746056
:100DA000284670BD82B041F21800C4F2020001680A
:100DB000042241F001010160016801F0010101918B
:100DC0000199416841F080514160406800F08050D5
:100DD000009000980420C4F20100016862F31A61D7
:100DE000016002B07047000010B54EF60C5CCEF208
:100DF000000CDCF80030C3F3022E8EF00704042C44
:100E000028BF0424BEF103034FF0FF3E0EFA04F4A2
:100E100038BF0023A14399400EFA03F39A431143CC
:100E200000F00F0200F160430901043A03F5644346
:100E30006244002848BF02F10C03197010BD000085
:100E40004EF60C51CEF200010A684FF6FF031A402D
:100E500060F30A2242F0806040F0FD700860704745
:100E6000012821D002280DD0102808D141F2040118
:100E7000C4F202010A6851F8040CC00134D4002005
:100E8000704700BF80B500F059F941F20401C4F287
:100E9000020109680222C1F3813102EB4101B0FB7A
:100EA000F1F0BDE88040704741F20400C4F2020056
:100EB000C16940F202320A40B2F5817F04BF4FF4AB
:100EC0000040704701F44071B1F5407F18D0B1F592
:100ED000007F1CBF00207047006A49F64041800730
:100EE00001EAE070704700BFC2F3834015A3185CAD
:100EF000D2030DD440F60012C0F23D02504313E07D
:100F000050F8040C4FF22441800301EAE07070476E
:100F10000A6810A3C2F340429A5C41F20023C0F277
:100F20007A03B3FBF2F250430968490248BF7047A5
:100F30004AF6AB214000CAF6AA21A0FB01014808ED
:100F4000704700BF02030405060708090A0B0C0DD1
:100F50000E0F101001020000002804BF012070478E
:100F60002DE9F04381B042F20008C4F202080446C1
:100F7000D8F800000D4600F0070081420CD9D8F8DF
:100F8000000020F007002843C8F80000D8F800004F
:100F900000F00700A8426CD1206841F204098107E3
:100FA000C4F2020917D5410705D5D9F8001041F45C
:100FB000E061C9F80010010705D5D9F8001041F427
:100FC0006051C9F80010D9F80010A26821F0F001B2
:100FD0001143C9F80010C00742D1D8F8000000F052
:100FE000070085420CD2D8F8000020F00700284303
:100FF000C8F80000D8F8000000F00700A84238D177
:101000002068410707D5D9F80010E26821F4E061B3
:101010001143C9F80010000708D5D9F8000021696C
:1010200020F4605040EAC100C9F80000D9F800205F
:1010300002F00C00082841F20020C0F27A004DD1E5
:1010400042F21403C2F38341C0F60003595CD20399
:1010500038D440F60010C0F23D0048433EE000BFE7
:10106000606859F8041C022808D0012826D1890399
:1010700006D4012001B0BDE8F08300BF8901F8D596
:10108000D9F8001021F003010843C9F80000FFF768
:101090003DFE064641F28837D9F80000616800F04D
:1010A0000C00B0EB810F98D0FFF730FE801BB842E8
:1010B000F2D9032001B0BDE8F08300BF8907D8D57D
:1010C000DEE700BFD9F8002042F21203C2F340422B
:1010D000C0F600039A5C4843B0FBF2F0D9F8001068
:1010E00041F6FA72C1F30311C0F60002515C40F2FE
:1010F000080220FA01F140F20400C2F20000006888
:10110000C2F200021160FFF729FE002001B0BDE825
:10111000F083000040F2080041F20401C2F2000036
:10112000C4F202010068096842F20A02C1F3022116
:10113000C0F60002515CC8407047000040F2080051
:1011400041F20401C2F20000C4F202010068096821
:1011500042F20A02C1F3C221C0F60002515CC8404B
:1011600070470000002804BF012070472DE9F041BE
:1011700082B00446007841F20006C007C4F20206BD
:101180000CD0706800F00C00042840F081803068BA
:10119000800303D56068002800F04681207880072E
:1011A0001BD5706810F00C0F09D0706800F00C00AF
:1011B000082840F087807068C00300F183803068A1
:1011C000800703D52069012840F02E8130686169CD
:1011D00020F0F80040EAC10030602078000713D406
:1011E000207840072CD4E569002D00F01881706844
:1011F00000F00C00082840F0A780012D40F0048189
:10120000012002B0BDE8F081A069002800F08480D0
:101210000020C4F242200121C0F88014FFF776FDBF
:10122000054600BF706A800700F1B280FFF76EFDCF
:10123000401B0228F6D9032002B0BDE8F08100BFB0
:10124000F0695FEAC00808D4F06940F08050F061AE
:10125000F06900F080500090009847F20007C4F257
:1012600000073868C00549D4386840F48070386099
:10127000FFF74CFD054600BF3868C0053ED4FFF7B8
:1012800045FD401B6428F7D9032002B0BDE8F0817A
:10129000706800F00C00082803D17068C0033FF5A7
:1012A00076AF61683068002900F00C81B1F5A02F9D
:1012B00000F00081B1F5803F40F01A8140F48030A9
:1012C0001CE100BF2069002840F20000C4F2422067
:1012D00000F0888001210160FFF718FD054600BF7E
:1012E000306880073FF572AFFFF710FD401B022802
:1012F000F6D9032002B0BDE8F08100BFE168306A92
:10130000002900F09D80052900F09280012940F01D
:10131000AF8040F00100B1E00020C4F24220002183
:10132000C0F88014FFF7F2FC054600BF706A800722
:101330007FF556AFFFF7EAFC401B0228F6D90320E1
:1013400002B0BDE8F08100BF0027C4F242270020B0
:101350003866FFF7DBFC022D05460DD130688001B1
:1013600040F1DE80FFF7D2FC401B02284FF0030063
:10137000F4D902B0BDE8F081306880014FD5FFF7A5
:10138000C5FC401B02284FF00300F5D9F1E700BF70
:1013900040F20800C2F20000006844F6D351C1F2E6
:1013A0006201A0FB0101480A019000BF00BF019843
:1013B000411E002801913FF413AF00BF0198411E68
:1013C000002801913FF40CAF00BF0198411E002896
:1013D00001913FF405AF00BF0198411E0028019123
:1013E000E4D1FDE600210160FFF790FC054600BF57
:1013F000306880077FF5F1AEFFF788FC401B0228BC
:101400004FF00300F4D9B4E77068216A00F4803229
:101410008A4209D1616A00F47010884204D1002028
:1014200002B0BDE8F08100BF012002B0BDE8F0814C
:1014300040F004003062306A40F001001EE000BF5E
:1014400020F001003062306A20F004003062FFF7C3
:101450005DFC054641F28837306A800720D5FFF7EA
:1014600055FC401BB8424FF00300F5D981E700BF9F
:1014700020F001003062306A20F004003062FFF793
:1014800045FC054641F28837306A800708D4FFF7EB
:101490003DFC401BB842F7D9032002B0BDE8F08103
:1014A000B8F1000F3FF59FAEF06920F08050F06179
:1014B00099E600BF40F480203060306840F480300E
:1014C0001CE000BF20F480303060306820F48020C1
:1014D0003060FFF71BFC0546306880037FF55EAE89
:1014E000FFF714FC401B64284FF00300F4D940E7D9
:1014F00020F480303060306820F480203060FFF7C6
:1015000005FC0546306880033FF548AEFFF7FEFB5B
:10151000401B6428F6D9032002B0BDE8F08100BF6B
:10152000206AB0F5803F05D17168A26821F40031CE
:10153000114371607168626A21F4741111430843A8
:10154000706001203866FFF7E1FB044630688001D7
:101550003FF565AFFFF7DAFB001B02284FF00300F1
:10156000F4D906E7411E0020B0EB116F1CBF01202B
:1015700070474EF21002CEF2000251604EF6235137
:10158000CEF20001F0230B700721906011607047CC
:1015900090F83C30012B04BF022070474FEAB202A2
:1015A000032A00F2F1802DE9F043DFE802F003A501
:1015B0003B7500BF036842F600461D6A1A6AC4F212
:1015C000010622F001021A621A465C6852F818CF2E
:1015D000B3428E68D1F800E025F0020545EA060521
:1015E0000CD1CE68D1E9057824F4407425F00C05BF
:1015F00026F004063C43354344EA08042CF0730704
:1016000047EA0E075C609F614F6809695F631D626E
:101610009F6947F008079F619F6927F004079F6152
:10162000A6E000BF036842F600461D6A1A6AC4F2CB
:10163000010622F480721A621A46D3F804C052F8E6
:101640001CEFB3428E680C6825F4007545EA062548
:101650000FD1CE68D1E90598360240F2FF4725F454
:101660004065BE4335432CF4405748EA090647EA33
:10167000061C2EF073072743C3F804C0DF614F68D0
:101680000969DF631D62DF6947F00807DF61DF6911
:1016900027F00407DF616BE0036842F60047D3F8E8
:1016A00020C01A6AC4F2010722F480521A621A4654
:1016B0005C6852F81C5FD1F800E08E68BB4204D130
:1016C0004F6924F4804444EA87142CF4005747EA15
:1016D000063725F4E64646EA0E265C60DE614E6873
:1016E00009691E641F62DF6947F40067DF61DF6913
:1016F00027F48067DF613AE0036842F600461D6A1E
:101700001A6AC4F2010622F010021A621A46D3F8CD
:1017100004C052F8184FB3428E68D1F800E025F0AB
:10172000200545EA06150FD1CE68D1E905986FF07E
:10173000400725F0C00507EA061635432CF440673C
:1017400048EA090647EA860C24F4E64444EA0E27F0
:10175000C3F804C09F614F6809699F631D629F6958
:1017600047F400679F619F6927F480679F610902C2
:101770001368194311600021BDE8F043002280F88E
:101780003C200846704700BF0121002280F83C2021
:1017900008467047002804BF0120704710B590F834
:1017A0003D1031B9002180F83C10044600F070F87B
:1017B0002046022180F83D10016840F2FF740B685A
:1017C000C4F2000442F6004CA142C4F2010C15DC44
:1017D000B1F1804F1AD040F20042C4F200029142AF
:1017E00014D0A14218DCB1F1804F1DD040F200426C
:1017F000C4F20002914217D01AE000BF614505D043
:1018000040F60002C4F200029142EAD1826823F05D
:1018100070031343A142E6DD614505D040F60002A6
:10182000C4F20002914203D1026923F440731343CE
:10183000846923F08002D0F804E0C3682243614544
:101840000A60CB62C1F828E002D14269CCF83020AE
:1018500001224A610B69DB0703D00B6923F0010306
:101860000B6180F8462080F83E2080F83F2080F809
:10187000402080F8412080F8422080F8432080F802
:10188000442080F8452080F83D20002010BD000055
:1018900070470000C1B1042908D0082914BF4122B3
:1018A0004022825C012A05D016E000BF3F22825C04
:1018B000012A11D10222082910D0042914BF80F86E
:1018C000412080F83F200BE090F83E20012A03D110
:1018D000022280F83E2003E00120704780F840207B
:1018E000006801F01F010122036A8A4023EA020115
:1018F0000162036A42F64441C4F201011A43A1F1B4
:101900004403984202620FD040F2FF71C4F200011A
:10191000884213DCB0F1804F1CD040F20041C4F289
:101920000001884216D01CE00A6842F400420A60B6
:1019300040F2FF71C4F200018842EBDD42F6004143
:10194000C4F20101884205D040F60001C4F2000152
:10195000884206D1816801F00701062904BF0020F2
:101960007047016841F001010160002070470000EC
:10197000002804BF0120704710B5044690F84100CC
:1019800028B9002084F84000204600F063F82420A5
:1019900084F841002068D4E90212C36823F400539C
:1019A000C360036923F440531A430261D4E904235A
:1019B0001143C268194341F20C639A431143C16059
:1019C0004169A26921F44071114343F60002C4F257
:1019D00001029042416103D0FFF79CFB02E000BF8F
:1019E000FFF7ACFBD4E90023192148439900B0FB71
:1019F000F1F048F21F5CC5F2EB1CA0FB0C314FF676
:101A00009C734909C0F6FF7301FB0300322303EB0B
:101A10000010A0FB0C03F02000EA531000EB0110B3
:101A2000C3F34311084490601069202120F49040D2
:101A30001061506920F02A005061D06840F40050D5
:101A4000D0600020606484F8411084F84210606324
:101A500010BD0000704700002DE9F04381B004463E
:101A600090F84100202809D100294FF0010018BF4B
:101A7000002A07D101B0BDE8F08300BF022001B009
:101A8000BDE8F0830020606421201D460E4684F8E6
:101A900041001746FFF73AF9A784E784A168814619
:101AA000B1F5805F02D1206900285DD03746002063
:101AB000E28C2168002A5DD06A1C24D0002D4AD017
:101AC000804600BF0868000608D4FFF71FF9A0EBA6
:101AD0000900A8427AD82168C868F3E717B117F857
:101AE000010B04E038F8020B00276FF35F20486019
:101AF000E08C0138E084E08C0028E3D13AE000BFBC
:101B00000A68120609D40A68120606D40A68120680
:101B10005CBF0A685FEA0262F2D51FB117F8012BB9
:101B200005E000BF30F8022B00276FF35F224A6008
:101B3000E28C013AE284E28C002AE4D11AE000BF90
:101B400030F8022B00276FF35F224A60E28C013AE3
:101B5000E284E28C72B10A68120635D5002FEFD00C
:101B600017F8012BF1E700BF00273046E28C21680F
:101B7000002AA1D1086840061ED42DB3681C14D1D8
:101B8000086840062AD40868400627D4086840063A
:101B900024D4086840064FF00000F1D50DE000BFE6
:101BA0002068C1680068400618D4FFF7AFF8A0EBC2
:101BB0000900A842F4D909E00020202184F841104E
:101BC00001B0BDE8F08300BFFFF7A0F8032020219B
:101BD00084F8411001B0BDE8F08300BF002020214F
:101BE00084F8411001B0BDE8F0830000FEE700007A
:101BF000FEE70000FEE700007047000070470000AD
:101C0000FFF78AB870470000FEE7000090B0FFF7CA
:101C100091F806AC201D2421FEF7ECFA0220069074
:101C200001200A9010200B90002520460D95FFF70B
:101C300099FA28B1EFF3108072B600BFFEE700BF3B
:101C40000F20CDE9010501A80021CDE90355059537
:101C5000FFF782F920B1EFF3108072B6FEE700BF04
:101C600041F2180B0024C4F2020BCDE90844CDE97F
:101C70000644DBF8000040F6000A40F00400CBF810
:101C80000000DBF80000C4F2010A00F0040001903B
:101C90000198DBF8000006AD40F00800CBF800002A
:101CA000DBF800004FF0010900F0080001900198F6
:101CB000DBF80000032740F01000CBF80000DBF851
:101CC0000000294600F01000019001985046CDF820
:101CD0001890CDE90774FEF70BFF0420069002264A
:101CE0005046294607960997FEF702FF0820CDE9DE
:101CF0000604504629460894FEF7FAFE4020069056
:101D00000AF580602946CDE907640997FEF7F0FEE1
:101D10008027504629460697FEF7EAFE0AF5006836
:101D2000404629460996CDE90679FEF7E1FE08947A
:101D3000CDE90644DBF800000AF5E05140F40070FC
:101D4000CBF80000DBF800004FF4602200F40070D4
:101D50000190019840F27000C2F2000080F80C90EF
:101D60000475C261C0E900148460C0F81090FEF7E9
:101D70005DFC28B1EFF3108072B600BFFEE700BF34
:101D80000520089040F27000C2F2000006A9CDE9DB
:101D90000649FEF7A7FB28B1EFF3108072B600BF2B
:101DA000FEE700BF40F27005C2F200052846FEF7CC
:101DB0000BFBDBF80400AAF5444140F40030CBF8FB
:101DC0000400DBF80400002400F4003006900698BC
:101DD00040F23010C2F200000C234FF4E13280E8F0
:101DE0001600C0E90344C0E90534C461FFF7C0FD33
:101DF00020B1EFF3108072B6FEE700BF0C94CDE97E
:101E00000A44CDE90844CDE90644DBF80400AAF50C
:101E1000823140F00200CBF80400DBF80400FF221E
:101E200000F0020001900198284640F8301F4F2131
:101E3000C0E90114C0E903248461FFF7ABFC28B1B9
:101E4000EFF3108072B600BFFEE700BF602005F11F
:101E500030090690002406A948460422CDE907442B
:101E60000A94FFF795FB28B1EFF3108072B600BF1C
:101E7000FEE700BF0C94CDE90A44CDE90844CDE962
:101E80000644DBF80400AAF5803140F00400CBF8EA
:101E90000400DBF80400FF2300F004000190019827
:101EA00040F2E800C2F200004F2280E81600C0E9CC
:101EB00003348461FFF76EFC20B1EFF3108072B63B
:101EC000FEE700BF602040F2E80406900020C2F266
:101ED0000004CDE907000A9006A920460022FFF77A
:101EE00057FB28B1EFF3108072B600BFFEE700BFCA
:101EF0002846FEF781FD48460421FFF7CBFC20462B
:101F00000021FFF7C7FC40F230174FF0FF0BC2F281
:101F1000000706AE03E000BF0520FEF7D5FD28460A
:101F2000FEF76AFD28460A21FEF72EFC0028F3D1B1
:101F30002846FEF777FB00EB400040F20112410219
:101F4000C0F21002A1FB022340F60102090AC0F20E
:101F50008002A1FB0212C3EB402003EB5000C2F34E
:101F6000C704042CC0F3C72040D84FF0FF098246B5
:101F7000DFE804F0082A3036040000BFFF244FF0E9
:101F8000000A8146002240468021B9F10A0F88BF2D
:101F90000122FEF7B5FE40F2E800C2F20000006840
:101FA0003146C0F834A0286B0422846338460523E8
:101FB0008DF818B08DF819908DF81AA08DF81B4087
:101FC000FFF74AFDA8E700BF80F0FF0900244FF0AB
:101FD000FF0AD7E74FF0FF0A4FF000090446D1E7A8
:101FE00080F0FF0AFF244FF00009CBE780F0FF04E8
:101FF0004FF0000A4FF0FF09C4E7000000000000A6
:1020000000000102030406070809000000000102A5
:102010000304010202030405060708090A0B0C0D5C
:102020000E0F1010482000080000002010000000D3
:102030005001000858200008100000207007000020
:102040007001000800000000010000001000000006
:0820500000127A0000000000FC
:04000005080000ED02
:00000001FF
