:020000040800F2
:10000000A8060020B5010008711500086915000850
:100010006D150008C10300088515000800000000E8
:10002000000000000000000000000000791500083A
:10003000C503000800000000751500087D150008C4
:10004000CF010008CF010008CF010008CF01000850
:10005000CF010008CF010008CF010008CF01000840
:10006000CF010008CF010008CF010008CF01000830
:10007000CF010008CF010008CF010008CF01000820
:10008000CF010008CF010008CF010008CF01000810
:10009000CF010008CF010008CF010008CF01000800
:1000A000CF010008CF010008CF010008CF010008F0
:1000B000CF010008CF010008CF010008CF010008E0
:1000C000CF010008CF010008CF010008CF010008D0
:1000D000CF010008CF010008CF010008CF010008C0
:1000E000CF010008CF010008CF01000800F002F89E
:1000F00000F050F814A696E8000CB244B344DA4578
:1001000001D100F047F8BAE80F000FA696E83000DA
:10011000A5EB040504EB0607AAEB0704A7F101070A
:100120004FEA15154FEA3414A4F10104AC4201D38F
:1001300000F030F813F0010F18BFFB1A43F0010371
:1001400000F001F8DBE71847B0160000D0160000F9
:10015000103A24BF78C878C1FAD8520724BF30C8F3
:1001600030C144BF04680C60704700007047000055
:100170000023002400250026103A28BF78C1FBD8B0
:10018000520728BF30C148BF0B6070471FB51FBD65
:1001900010B510BD00F058F81146FFF7F7FF01F059
:1001A000F3F900F076F803B4FFF7F2FF03BC00F0B8
:1001B0007DF800000948804709480047FEE7FEE750
:1001C000FEE7FEE7FEE7FEE7FEE7FEE7FEE7FEE707
:1001D00004480549054A064B704700008115000890
:1001E000ED000008A8000020A8060020A8020020BA
:1001F000A80200204FF0000200B513469446964630
:10020000203922BFA0E80C50A0E80C50B1F1200129
:10021000BFF4F7AF090728BFA0E80C5048BF0CC0D7
:100220005DF804EB890028BF40F8042B08BF704735
:1002300048BF20F8022B11F0804F18BF00F8012BA7
:100240007047704770477047754600F02BF8AE4610
:1002500005006946534620F00700854618B020B5D2
:10026000FFF7B6FFBDE820404FF000064FF0000753
:100270004FF000084FF0000BAC46ACE8C009ACE80A
:10028000C009ACE8C009ACE8C00921F007018D46FF
:10029000704710B50446AFF300802046BDE810401B
:1002A000FFF781BF00487047100000200149182067
:1002B000ABBEFEE72600020070470000B0B5044662
:1002C00000688168C90709D0816821F00101816057
:1002D00000F01CFD21688968C90701D10020B0BD6C
:1002E000054602E08068C007F8D000F00FFD411B12
:1002F00020680329F6D38168C907F3D0A06A40F0CB
:100300001000A062E06A40F00100E0620120B0BD90
:10031000B0B582B004460020019021688A68D207F7
:100320004BD1886840F00100886040F20800C2F2BA
:10033000000000684DF68361C4F21B31A0FB01018F
:10034000880C01900198A0B10198013801900198A2
:1003500078B1019801380190019850B101980138A5
:100360000190019828B10198013801900198002866
:10037000EAD100F0CBFC21688968C9071CD1054689
:1003800003E000BF8068C00716D100F0BFFC411B2E
:1003900020680329F6D38168C907F3D1A06A40F029
:1003A0001000A062E06A40F00100E062002084F8E2
:1003B0002400012002B0B0BD002002B0B0BD00009A
:1003C000FEE700007047000070B582B004460020D0
:1003D000019094F82400012802D1022002B070BDDF
:1003E000012084F824002046FFF768FF2046FFF72D
:1003F0008FFF28B1002184F8241002B070BD00BF27
:100400000646A06A41F2021188430230A06240F21F
:100410000800C2F200000568022000F021FDB5FBD3
:10042000F0F0400001900198A8B100BF0198013898
:100430000190019878B1019801380190019850B16C
:10044000019801380190019828B101980138019074
:1004500001980028EAD12068816841F00801816094
:1004600000F054FC21688A6812070FD4886840F0B5
:100470000400886000F04AFC21688968490715D4A7
:1004800001216FF00302304622E000BF054602E082
:1004900088680007EAD500F039FC401B21680B286A
:1004A000F6D388680007F3D50EE000BF054602E0EA
:1004B00080684007E4D500F029FC411B20680B2927
:1004C000F6D381684907F3D5012010216FF012029D
:1004D000A36A1A401143A162002184F8241002B0DB
:1004E00070BD000070B581B00022009290F8242009
:1004F000012A03D10221084601B070BD4A680123D8
:10050000062A02EB820E80F8243007D8D0F800C00B
:100510006FF004030CF134060CE000BFD0F800C00B
:100520000C2A87BF0CF12C066FF040030CF130064B
:100530006FF022030EEB03021F23346803FA02F567
:100540000B6824EA050503FA02F22A433260092BFC
:1005500003EB43021AD9DCF80C601E3A07258968C0
:100560009540AE43914023F001023143102ACCF86C
:100570000C1015D142F20041C4F201018C4517D094
:10058000816A41F02001816201210AE0DCF810302B
:10059000072689689640B34391401943CCF8101060
:1005A0000021002280F82420084601B070BD00BF61
:1005B00089680902F4D4DCF80810102B41F400011A
:1005C000CCF80810ECD140F20801C2F20001096831
:1005D0004DF68362C4F21B32A1FB0212910C01EBB7
:1005E00081014900009100990029D9D00099013971
:1005F000009100990029D3D0009901390091009908
:100600000029CDD000990139009100990029C7D067
:10061000009901390091009900294FF00001E5D1BE
:10062000BFE700000068C06C70470000002804BFEE
:1006300001207047B0B50446806A28B121688868F7
:10064000C0070CD115E000BF0020E06284F8240050
:10065000204600F097F821688868C00709D08868AC
:1006600020F00100886000F051FB21688A68D20701
:1006700026D1A06AC0063AD4A06A41F20212904381
:100680000230A062E069D4E9013240EA030C531E53
:10069000B3FA83F35D091346B2F5807F18BF2B02CE
:1006A000207D257B01284CEA45002CD135B3A56A75
:1006B00045F02005A562E56A45F00105E56222E006
:1006C000054602E08868C007D3D000F01FFB401B3E
:1006D00021680328F6D38868C007F3D0A06A40F0E9
:1006E0001000A062E06A40F00100E062A06AA06A27
:1006F00040F01000A0620120B0BD00BFA56903EB6F
:100700004533A3F5C0534D68B2F5807F25F46945A4
:1007100043EA05034B608B684FF2FD75CFF6E17538
:1007200003EA050343EA00038B6001D0012A07D1E5
:1007300022690023CFF6F07303EB025201E000BF01
:100740000022CB6A23F470031A43CA62896840F618
:10075000FE62CFF61F721140814207D10020E06295
:10076000A16A012262F30101A162B0BDA06A40F05A
:10077000100020F00200A062E06A40F00100E06298
:100780000120B0BD704700002DE9F04182B0002784
:100790000D460446019700F0B9FA21688A68D2052F
:1007A00044D406464868C00503D4C86A10F4700FE4
:1007B00046D040F20800C2F20000076842F29248B8
:1007C0000220C1F2492800F04BFB216844F62413B3
:1007D0000A69B7FBF0F0C2F292431A4206D1CA6826
:1007E00044F62413C0F292031A425BD00A6912EA5B
:1007F000080F07D1CA6842F29243C0F249031A4275
:1008000000F0C0800A6949F24923C0F224031A4269
:100810004FF0FC0254D1CF681F4208BF5422019B05
:1008200002FB00F7BB4250D3C3E000BFA06A40F018
:100830002000A06284F82470012002B0BDE8F0819D
:100840000868800700F1B580681C00F0A880FDB939
:100850000868800770D50868800700F1AA800868DA
:10086000800769D50868800700F1A38008688007C1
:1008700062D50868800700F19C80086880075BD516
:1008800008688007E4D594E00868800700F191804B
:1008900000F03CFA801B2168A842F5D9086880075F
:1008A000F2D449E00A6912EA080F4FF0290207D191
:1008B000CB6842F29247C0F249073B4208BF14227C
:1008C000019B02FB00F7BB4273D2681C52D05DBB98
:1008D0000198B84230D30198013001900198B84294
:1008E00067D20198B84227D301980130019001984E
:1008F000B8425ED20198B8421ED3019801300190EF
:100900000198B84255D20198B84215D301980130E8
:1009100001900198B842DBD34BE000BF0198013051
:1009200001900198B84235D200F0F0F9801BA8423E
:10093000F4D90198B842F1D2A06A40F00400A06254
:10094000002084F82400032002B0BDE8F08100BF3D
:100950000198013001900198B8422AD201980130E3
:1009600001900198B84224D2019801300190019879
:10097000B8421ED20198013001900198B842E7D3E5
:1009800017E000BF5422019B02FB00F7BB429CD33F
:100990000FE000BF21680CE00868800709D40868F0
:1009A000800706D4086880075CBF08685FEA80702B
:1009B000F2D56FF012000860A06A40F40070A062E7
:1009C000886800F46020B0F5602F01D1207B18B159
:1009D000002002B0BDE8F081A06A20F48070A0621F
:1009E000A06AC004F4D4A06A40F00100A062002014
:1009F00002B0BDE8F081000010B5044690F8240074
:100A0000012804BF022010BD012084F824002046E4
:100A1000FFF77EFC20B1002084F82400012010BDE7
:100A200042F2044C2068A16AC4F2010C40F2013287
:100A300091430CF57F7201F580719042A16229D03B
:100A4000A16A21F48011A1624168490504D5A16A17
:100A5000012363F30D31A162A16A0023C9044FF0A1
:100A6000000144BFE16A21F00601E1626FF002017A
:100A700084F824300160816801F46021B1F5602FB1
:100A80001BD1904214D0816841F4A0018160002004
:100A900010BD00BFDCF8001011F4702FD0D0A16A97
:100AA00041F48011A162DCF800104905CFD4D3E7EE
:100AB000DCF8001011F4702FE5D0816841F480114A
:100AC0008160002010BD0000B0B5044600F01EF9A2
:100AD000054640F20000C2F200000078611C18BF19
:100AE000044400BF00F012F9401BA042FAD3B0BD8D
:100AF0002DE9F04F82B00E68002E00F0FD8041F22B
:100B00000042C4F20102042340F2004E904208BFAA
:100B100003234FF6FF7CC4F2010E0093002401234F
:100B2000C1F2100C4FF0000A4FF000094BE000BF7B
:100B300041F20002C4F20102009F904208BF022766
:100B400004F00C030F229A402BEA020207FA03F387
:100B50004FEA9A051A4346F825204E6840F20C45A4
:100B6000F202DEF8082054BF22EA080242EA080234
:100B7000C4F20105CEF808202A68B30254BF22EA65
:100B8000080242EA08022A60B303DEF8042054BFD8
:100B900022EA080242EA0802F303CEF80420DEF853
:100BA00000204FF0010354BF22EA080242EA080283
:100BB000CEF800200E680AF1010A36FA0AF204F1B2
:100BC000040400F0998003FA0AFB16EA0B08F1D03E
:100BD0004E68664512DC122E56D8DFE806F0350B5B
:100BE0004D495555555555555555555555555545D9
:100BF000510000BFD1F80C9046E000BF4FF6FF72E5
:100C0000C1F2210296420FDC0022C1F2110296428B
:100C10001AD00022C1F21202964215D00022C1F26F
:100C20002102964210D02FE00022C1F22202964209
:100C30000AD00022C1F23102964205D00022C1F250
:100C40003202964220D100BF8A684AB1012A14BFFD
:100C5000C0F814B0C0F810B04FF0080914E000BF9D
:100C60004FF0040910E000BFCA6802F104090BE06C
:100C70004FF0000908E000BFCA6802F1080903E06C
:100C8000CA6802F10C0900BF02462646B8F5807F0B
:100C900024BF0432203E17680F25B54027EA05051A
:100CA00009FA06F635431560CA79D2067FF582AF98
:100CB00041F21803C4F202031A68AEF57E7642F0E0
:100CC00001021A601A6802F001020192019A2AF0E8
:100CD000030256F802B040F60002C4F2010290424C
:100CE00008D040F60042C4F2010290427FF420AFE7
:100CF000012725E7002723E702B0BDE8F08F0000B9
:100D0000002A08BF090401617047000040F2A000FA
:100D1000C2F200000068704740F2000040F2A001FB
:100D2000C2F20000C2F2000100780A6810440860B4
:100D30007047000080B542F20000C4F20200016872
:100D400041F010010160032000F07AF80F2000F05C
:100D500005F800F027F8002080BD000070B540F2D3
:100D60000006C2F2000640F208013278C2F2000129
:100D70004FF47A730968B3FBF2F20446B1FBF2F167
:100D8000084600F0DBFB0F2C4FF0010508D838B9FE
:100D90004FF0FF3021460022002500F025F8746056
:100DA000284670BD82B041F21800C4F2020001680A
:100DB000042241F001010160016801F0010101918B
:100DC0000199416841F080514160406800F08050D5
:100DD000009000980420C4F20100016862F31A61D7
:100DE000016002B07047000010B54EF60C5CCEF208
:100DF000000CDCF80030C3F3022E8EF00704042C44
:100E000028BF0424BEF103034FF0FF3E0EFA04F4A2
:100E100038BF0023A14399400EFA03F39A431143CC
:100E200000F00F0200F160430901043A03F5644346
:100E30006244002848BF02F10C03197010BD000085
:100E40004EF60C51CEF200010A684FF6FF031A402D
:100E500060F30A2242F0806040F0FD700860704745
:100E6000012821D002280DD0102808D141F2040118
:100E7000C4F202010A6851F8040CC00134D4002005
:100E8000704700BF80B500F045F941F20401C4F29B
:100E9000020109680222C1F3813102EB4101B0FB7A
:100EA000F1F0BDE88040704741F20400C4F2020056
:100EB000C16940F202320A40B2F5817F04BF4FF4AB
:100EC0000040704701F44071B1F5407F18D0B1F592
:100ED000007F1CBF00207047006A49F64041800730
:100EE00001EAE070704700BFC2F3834015A3185CAD
:100EF000D2030DD440F60012C0F23D02504313E07D
:100F000050F8040C4FF22441800301EAE07070476E
:100F10000A6810A3C2F340429A5C41F20023C0F277
:100F20007A03B3FBF2F250430968490248BF7047A5
:100F30004AF6AB214000CAF6AA21A0FB01014808ED
:100F4000704700BF02030405060708090A0B0C0DD1
:100F50000E0F101001020000002804BF012070478E
:100F60002DE9F04381B042F20008C4F202080446C1
:100F7000D8F800000D4600F0070081420CD9D8F8DF
:100F8000000020F007002843C8F80000D8F800004F
:100F900000F00700A8426CD1206841F204098107E3
:100FA000C4F2020917D5410705D5D9F8001041F45C
:100FB000E061C9F80010010705D5D9F8001041F427
:100FC0006051C9F80010D9F80010A26821F0F001B2
:100FD0001143C9F80010C00742D1D8F8000000F052
:100FE000070085420CD2D8F8000020F00700284303
:100FF000C8F80000D8F8000000F00700A84238D177
:101000002068410707D5D9F80010E26821F4E061B3
:101010001143C9F80010000708D5D9F8000021696C
:1010200020F4605040EAC100C9F80000D9F800205F
:1010300002F00C00082841F20020C0F27A004DD1E5
:1010400041F2E873C2F38341C0F60003595CD20356
:1010500038D440F60010C0F23D0048433EE000BFE7
:10106000606859F8041C022808D0012826D1890399
:1010700006D4012001B0BDE8F08300BF8901F8D596
:10108000D9F8001021F003010843C9F80000FFF768
:101090003DFE064641F28837D9F80000616800F04D
:1010A0000C00B0EB810F98D0FFF730FE801BB842E8
:1010B000F2D9032001B0BDE8F08300BF8907D8D57D
:1010C000DEE700BFD9F8002041F2E673C2F34042E8
:1010D000C0F600039A5C4843B0FBF2F0D9F8001068
:1010E00041F2CE72C1F30311C0F60002515C40F22E
:1010F000080220FA01F140F20400C2F20000006888
:10110000C2F200021160FFF729FE002001B0BDE825
:10111000F083000040F2080041F20401C2F2000036
:10112000C4F202010068096841F2DE72C1F3C22113
:10113000C0F60002515CC84070470000002804BFA0
:10114000012070472DE9F04182B00446007841F259
:101150000006C007C4F202060CD0706800F00C0054
:10116000042840F081803068800303D5606800283F
:1011700000F04681207880071BD5706810F00C0FB6
:1011800009D0706800F00C00082840F08780706873
:10119000C00300F183803068800703D520690128EF
:1011A00040F02E813068616920F0F80040EAC1000B
:1011B00030602078000713D4207840072CD4E569EC
:1011C000002D00F01881706800F00C00082840F035
:1011D000A780012D40F00481012002B0BDE8F0811C
:1011E000A069002800F084800020C4F24220012180
:1011F000C0F88014FFF78AFD054600BF706A8007BB
:1012000000F1B280FFF782FD401B0228F6D90320CF
:1012100002B0BDE8F08100BFF0695FEAC00808D401
:10122000F06940F08050F061F06900F0805000906B
:10123000009847F20007C4F200073868C00549D497
:10124000386840F480703860FFF760FD054600BFE5
:101250003868C0053ED4FFF759FD401B6428F7D914
:10126000032002B0BDE8F081706800F00C0008288F
:1012700003D17068C0033FF576AF6168306800291C
:1012800000F00C81B1F5A02F00F00081B1F5803F96
:1012900040F01A8140F480301CE100BF2069002832
:1012A00040F20000C4F2422000F088800121016079
:1012B000FFF72CFD054600BF306880073FF572AF91
:1012C000FFF724FD401B0228F6D9032002B0BDE839
:1012D000F08100BFE168306A002900F09D80052997
:1012E00000F09280012940F0AF8040F00100B1E0B1
:1012F0000020C4F242200021C0F88014FFF706FD50
:10130000054600BF706A80077FF556AFFFF7FEFC09
:10131000401B0228F6D9032002B0BDE8F08100BFCF
:101320000027C4F2422700203866FFF7EFFC022DA9
:1013300005460DD13068800140F1DE80FFF7E6FC04
:10134000401B02284FF00300F4D902B0BDE8F08141
:10135000306880014FD5FFF7D9FC401B02284FF0C1
:101360000300F5D9F1E700BF40F20800C2F2000027
:10137000006844F6D351C1F26201A0FB0101480AA2
:10138000019000BF00BF0198411E002801913FF469
:1013900013AF00BF0198411E002801913FF40CAF2C
:1013A00000BF0198411E002801913FF405AF00BF26
:1013B0000198411E00280191E4D1FDE60021016061
:1013C000FFF7A4FC054600BF306880077FF5F1AE4B
:1013D000FFF79CFC401B02284FF00300F4D9B4E750
:1013E0007068216A00F480328A4209D1616A00F48F
:1013F0007010884204D1002002B0BDE8F08100BF27
:10140000012002B0BDE8F08140F004003062306A93
:1014100040F001001EE000BF20F001003062306AA1
:1014200020F004003062FFF771FC054641F2883776
:10143000306A800720D5FFF769FC401BB8424FF0A7
:101440000300F5D981E700BF20F001003062306A67
:1014500020F004003062FFF759FC054641F288375E
:10146000306A800708D4FFF751FC401BB842F7D917
:10147000032002B0BDE8F081B8F1000F3FF59FAE48
:10148000F06920F08050F06199E600BF40F48020C0
:101490003060306840F480301CE000BF20F48030C1
:1014A0003060306820F480203060FFF72FFC054664
:1014B000306880037FF55EAEFFF728FC401B642890
:1014C0004FF00300F4D940E720F4803030603068FA
:1014D00020F480203060FFF719FC05463068800357
:1014E0003FF548AEFFF712FC401B6428F6D90320F5
:1014F00002B0BDE8F08100BF206AB0F5803F05D1A1
:101500007168A26821F40031114371607168626AE8
:1015100021F4741111430843706001203866FFF70D
:10152000F5FB0446306880013FF565AFFFF7EEFB41
:10153000001B02284FF00300F4D906E7411E0020EB
:10154000B0EB116F1CBF012070474EF21002CEF2BB
:10155000000251604EF62351CEF20001F0230B70D1
:101560000721906011607047FEE70000FEE7000071
:10157000FEE700007047000070470000FFF7CCBB9B
:1015800070470000FEE7000090B0FFF7D3FB06AC09
:10159000201D2421FEF72EFE0220069001200A9035
:1015A00010200B90002520460D95FFF7C7FD28B1B0
:1015B000EFF3108072B600BFFEE700BF0F20CDE949
:1015C000010501A80021CDE903550595FFF7C4FCED
:1015D00020B1EFF3108072B6FEE700BF002441F2A5
:1015E0001805CDE90844CDE90644C4F2020528688F
:1015F00040F6000840F0040028602868C4F20108A2
:1016000000F0040001900198286806AF40F008003F
:10161000286028684FF0010A00F008000190019846
:101620002868394640F010002860286800F0100053
:10163000019001980320CDE907044046CDF818A099
:10164000FFF756FA02200990402008F580690690BD
:1016500048463946CDE907A4FFF74AFA80264046B6
:1016600039460696FFF744FA069608F500663046B6
:101670003946FFF73DFA0894CDE90644286808F595
:10168000E05140F40070286028684FF4602200F4B4
:1016900000700190019840F27000C2F2000080F8E2
:1016A0000CA00475C261C0E900148460C0F810A0E9
:1016B000FEF7BCFF20B1EFF3108072B6FEE700BF6B
:1016C0000520089040F27000C2F2000006A9CDE9A2
:1016D000064AFEF707FF28B1EFF3108072B600BF8D
:1016E000FEE700BF40F27007C2F200073846FEF77F
:1016F0006BFE3846FFF780F940F2011A40F6010B05
:10170000C0F2100AC0F2800B03E000BF0520FFF713
:10171000DBF93846FFF770F938460A21FFF734F84D
:101720000028F3D13846FEF77DFF00EB4000410270
:10173000A1FB0A23090AA1FB0B12C3EB402003EB18
:101740005001C2F3C70004284FEAD1223AD80FF261
:101750000C0303EB8005FF211346AF4600F00CB8E5
:1017600000F020B800F024B800F026B800F000B86F
:101770000023FF20114600BFC9B2CA09D9B2C0B2C6
:10178000CC09C50930468021FFF7BAFA4846402106
:101790002246FFF7B5FA404680212A46FFF7B0FA05
:1017A000B4E700BF82F0FF01FF230020E4E700BFA1
:1017B0000021FF231046DFE782F0FF030021FF2016
:1017C000DAE700BF82F0FF00FF210023D4E700002A
:1017D00000000000000001020304060708090000E1
:1017E00000000102030401020203040506070809C0
:1017F0000A0B0C0D0E0F1010181800080000002026
:1018000010000000500100082818000810000020F7
:1018100098060000700100080100000010000000A0
:0818200000127A000000000034
:04000005080000ED02
:00000001FF
