:020000040800F2
:10000000A0080020BD010008511E0008491E00087C
:100010004D1E000819060008B1210008000000006C
:10002000000000000000000000000000591E000851
:100030003506000800000000551E00085D1E00087F
:10004000D7010008D7010008D7010008D701000830
:10005000D7010008D7010008D7010008D701000820
:10006000D7010008D7010008D7010008D701000810
:10007000D7010008D7010008D7010008D701000800
:100080001D06000829060008D7010008D70100084E
:10009000D7010008D7010008D7010008D7010008E0
:1000A000D7010008D7010008D7010008D7010008D0
:1000B000D7010008D7010008D7010008D7010008C0
:1000C000D7010008D7010008D7010008D7010008B0
:1000D000D7010008D7010008A5210008D7010008B2
:1000E00039060008D7010008D701000800F002F81F
:1000F00000F055F814A696E8000CB244B344DA4573
:1001000001D100F04CF8BAE80F000FA696E83000D5
:10011000A5EB040504EB0607AAEB0704A7F101070A
:100120004FEA15154FEA3414A4F10104AC4201D38F
:1001300000F035F813F0010F18BFFB1A43F001036C
:1001400000F001F8DBE71847C0240000E0240000BD
:10015000103A24BF78C878C1FAD8520724BF30C8F3
:1001600030C144BF04680C60704700007047000055
:100170000023002400250026103A28BF78C1FBD8B0
:10018000520728BF30C148BF0B607047782900F084
:100190007D80002070471FB51FBD10B510BD00F059
:1001A00001FA1146FFF7F7FF02F004F800F01FFA1A
:1001B00003B4FFF7F2FF03BC00F026FA09488047BA
:1001C00009480047FEE7FEE7FEE7FEE7FEE7FEE739
:1001D000FEE7FEE7FEE7FEE704480549054A064B51
:1001E00070470000611E0008ED000008A00200201A
:1001F000A0080020A0040020A00400200FB41CB51B
:100200000C0007AA009007D04142A14202D320442B
:10021000401E01E04FF0FF30074B7B4469460190E0
:10022000069800F0A4F90020002C01D00099087075
:100230001CBC5DF814FB00007703000070B5044699
:1002400085690068C10601D5302600E02026C00778
:1002500007D070BDD4E9012130469047206A401C88
:1002600020626D1EF6D570BD70B5044685690078B4
:10027000C00707D170BDD4E9012120209047206A32
:10028000401C20626D1EF6D570BD000070B504469E
:100290000D4621461068AFF300802188090502D57C
:1002A0000F4A7A4402E00E4A7A440E32002104F1E9
:1002B000240305E000F00F060009965D5E54491C1A
:1002C0000028F7D120780023000704D5702D02D034
:1002D00009B1022311322046BDE8704000F0E8B8B1
:1002E000FC2200002DE9F05F894604464FF0000A29
:1002F000DFF874B1FB44C0F820A02046E1688847CD
:10030000002874D0252806D0D4E901219047206A1E
:10031000401C2062F1E700265F462046E1688847DE
:100320002028054607DB312D05D2781910F8200C5E
:1003300008B10643F1E7B00701D526F00406C4F87A
:100340001CA00027C4F818A02A2D09D0284602F0C6
:1003500021F938B304EB8708303DC8F8185019E08C
:1003600059F8041B204604EB87029161E168884735
:10037000012F054618D1E069002820DA26F0200672
:100380001DE0D8F8180000EB800005EB4000303885
:10039000C8F818002046E1688847054602F0FAF8D8
:1003A0000028EED1012F0AD02E2D08D12046E16879
:1003B00088477F1C0546022F46F02006C4DBA06953
:1003C000002803DA404246F00106A061F00701D0A0
:1003D00026F010066C2D0BD0682D09D04C2D39D08D
:1003E0006A2D35D0742D35D07A2D33D016E038E013
:1003F000E1682F4620468847B842054609D16C2F50
:1004000026D04FF48060E1680643204688470546C1
:1004100004E06C2F1AD04FF4807006430DB3A5F1A1
:100420004100192802D8203546F400664A4629467C
:10043000204626604E46FFF7A9FE80B101280BD06A
:10044000F61D26F0070000F1080956E74020E4E712
:100450008020D8E70020D6E706F104094DE72846BA
:1004600052E7206ABDE8F09FD222000010B5431C7D
:1004700002E010F8011B71B18107FAD14FF001328F
:1004800002C88C1A8C4314EAC211F9D0C01A0A06A9
:1004900003D0C01E10BDC01A10BD0A0401D0801EBA
:1004A00010BD0902FCD0401E10BD70477047704758
:1004B0002DE9F0470D4699469246044600F124087E
:1004C0000168880604D5E06921F01001216000E090
:1004D0000120A84201DD471B00E00027A1697A192D
:1004E00002EB0900081AA0612078C00602D4204659
:1004F000FFF7A4FE002608E0D4E901211AF806005F
:100500009047206A401C761C20624E45F4DB207820
:10051000C0060AD52046FFF791FE06E0D4E9012186
:1005200030209047206A401C2062381EA7F1010746
:10053000F4DC07E0D4E9012118F805009047206AAF
:10054000401C2062281EA5F10105F3DC2046FFF7C0
:100550008BFE2078000602D50220BDE8F08701203E
:10056000FBE7000001694A1C02610878704700B58A
:100570008FB0CDE901310021059105497944CDE9DC
:10058000031011466846FFF7ADFE0FB000BD000036
:10059000E5FFFFFFD1E900239A4202D2531C0B6012
:1005A00010707047754600F02BF8AE46050069469E
:1005B000534620F00700854618B020B5FFF70CFE23
:1005C000BDE820404FF000064FF000074FF0000854
:1005D0004FF0000BAC46ACE8C009ACE8C009ACE891
:1005E000C009ACE8C00921F007018D46704710B57D
:1005F0000446AFF300802046BDE81040FFF7D8BDA9
:10060000004870471000002001491820ABBEFEE7EB
:100610002600020070470000FEE7000040F2BC0028
:10062000C2F2000000F092B840F20010C2F20000E6
:1006300000F08CB8704700004FF4806000F02EBAD4
:10064000EFF3108072B600BFFEE70000014690F89D
:100650002100022816D10868D1E90FC3026822F0F0
:100660000E020260026822F001020260012000FA1C
:1006700003F2CCF8042081F821000020002281F848
:1006800020207047042088630120002281F8202068
:100690007047000090F82110022923D1026840F22F
:1006A000040C1168C4F2020C21F00E0111601368F1
:1006B0002F21C4F202018A4223F00103136015DDE9
:1006C0003023C4F202039A421CD04423C4F2020332
:1006D0009A421BD05823C4F202039A421CD14FF411
:1006E000803321E004218163012070470823C4F294
:1006F00002039A420ED01C23C4F202039A420BD189
:10070000102311E04FF480730EE000BF4FF48053CC
:100710000AE000BF012307E00CF168014FF080738D
:100720008A4208BF4FF480130121CCF8003080F8D2
:100730002110416B0022002980F8202004BF0020F6
:10074000704780B58847002080BD000010B5D0E913
:100750000FCE0168DCF800300A6823FA0EF35C075C
:100760002AD512F0040427D00A68920603D40A6836
:1007700022F004020A602F22C4F20202914240F2E7
:100780000402C4F202025BDD3023C4F20203994288
:1007900072D04423C4F20203994273D05823C4F2A6
:1007A0000203994240F07A804FF480231360C16ABB
:1007B000002940F098806FE09C0727D512F00204D2
:1007C00024D00A68920606D40A6822F00A020A6057
:1007D000012280F821202F22C4F20202914240F22D
:1007E0000402C4F202023BDD3023C4F20203994248
:1007F00060D04423C4F2020399425FD05823C4F26C
:100800000203994260D14FF4003365E01B0743D5E2
:1008100012F0080208BF10BD0A6822F00E020A603A
:10082000012101FA0EF2CCF80420816380F8211036
:10083000016B0022002980F8202054D12CE000BF59
:100840000823C4F20203994222D01C23C4F20203FB
:10085000994223D140231360C16A002943D11BE090
:100860000823C4F2020399422CD01C23C4F20203D1
:10087000994229D120232FE04FF480631360C16A8D
:1008800089BB09E04FF480431360C16A59BB03E0A0
:1008900004231360C16A31BB10BD00BF02F16804BC
:1008A0004FF08063A14208BF4FF480031360C16A18
:1008B000C9B9F1E74FF400730EE000BF4FF40053E5
:1008C0000AE000BF022307E002F168044FF0007362
:1008D000A14208BF4FF400131360816A002200296F
:1008E00080F82020D8D0BDE81040084701460028F5
:1008F0004FF0010008BF70472DE9F043D1F800C068
:100900004FF6F873CBF6FD734CF6CD426344CCF64C
:10091000CC42A3FB02236FF0030202EA93020023FE
:10092000C4F2020301F10C08C1E90F320222D1E93D
:10093000019E98E8F00181F82120DCF8002043F6C0
:10094000F0739A4342EA090242EA0E0222432A4322
:1009500032433A4342EA0802CCF8002000228A637C
:1009600081F8210081F820200020BDE8F043704785
:1009700090F820C0BCF1010F04BF02207047F0B511
:100980004FF0010E80F820E090F821C0BCF1010F7B
:1009900026D14FF0020C80F821C04FF0000CC0F8B7
:1009A00038C0D0E900C4C56AC66BDCF80070102CF2
:1009B00027F00107CCF80070006C0EFA00F07060B0
:1009C0000846CCF8043004BF10460A46CCF80800AC
:1009D000CCF80C20DCF8000045B140F00E000DE032
:1009E000002180F820100220F0BD00BF20F004009C
:1009F000CCF80000DCF8000040F00A00CCF8000061
:100A0000DCF8000040F00100CCF800000020F0BD50
:100A1000B0F5806F41D140F27000C2F20000417821
:100A2000D9BB41F20401CEF20001096848F63962EF
:100A3000C3F6E302A1FB0212416848F2A163C1EBD5
:100A40001211C0F2010399424FEA121104D300229D
:100A5000027041601EE000BFC2784160D2B182687E
:100A600081608A1A642A18D30178432908D801784A
:100A70004B1C037040F28C13C2F2000343F8212098
:100A80000178432938BF704701214170002101706E
:100A900002E000BF81600121C170704740F2144143
:100AA000C4F201010A68024214BF08607047FFF7F0
:100AB000AFBF00002DE9F04F82B00E68002E00F0AD
:100AC000FD8041F20042C4F20102042340F2004ED4
:100AD000904208BF03234FF6FF7CC4F2010E00933F
:100AE00000240123C1F2100C4FF0000A4FF000095E
:100AF0004BE000BF41F20002C4F20102009F9042AD
:100B000008BF022704F00C030F229A402BEA0202CE
:100B100007FA03F34FEA9A051A4346F825204E6870
:100B200040F20C45F202DEF8082054BF22EA080227
:100B300042EA0802C4F20105CEF808202A68B3028E
:100B400054BF22EA080242EA08022A60B303DEF830
:100B5000042054BF22EA080242EA0802F303CEF856
:100B60000420DEF800204FF0010354BF22EA0802FF
:100B700042EA0802CEF800200E680AF1010A36FAAD
:100B80000AF204F1040400F0998003FA0AFB16EA61
:100B90000B08F1D04E68664512DC122E56D8DFE8FD
:100BA00006F0350B4D495555555555555555555527
:100BB00055555545510000BFD1F80C9046E000BF97
:100BC0004FF6FF72C1F2210296420FDC0022C1F201
:100BD000110296421AD00022C1F21202964215D09A
:100BE0000022C1F22102964210D02FE00022C1F271
:100BF000220296420AD00022C1F23102964205D06A
:100C00000022C1F23202964220D100BF8A684AB166
:100C1000012A14BFC0F814B0C0F810B04FF0080992
:100C200014E000BF4FF0040910E000BFCA6802F1F1
:100C300004090BE04FF0000908E000BFCA6802F1A8
:100C4000080903E0CA6802F10C0900BF0246264603
:100C5000B8F5807F24BF0432203E17680F25B540C9
:100C600027EA050509FA06F635431560CA79D20662
:100C70007FF582AF41F21803C4F202031A68AEF5A1
:100C80007E7642F001021A601A6802F001020192B7
:100C9000019A2AF0030256F802B040F60002C4F2AC
:100CA0000102904208D040F60042C4F20102904294
:100CB0007FF420AF012725E7002723E702B0BDE836
:100CC000F08F000040F29C20C2F2000000687047E4
:100CD00040F2000040F29C21C2F20000C2F200018A
:100CE00000780A68104408607047000080B542F23E
:100CF0000000C4F20200016841F01001016003200D
:100D000000F08CF80F2000F005F800F027F8002024
:100D100080BD000070B540F20006C2F2000640F24D
:100D200008013278C2F200014FF47A730968B3FB0C
:100D3000F2F20446B1FBF2F1084600F085FB0F2CFD
:100D40004FF0010508D838B94FF0FF302146002296
:100D5000002500F037F87460284670BD82B041F27B
:100D60001800C4F202000168022241F00101016092
:100D7000016801F0010101910199416841F0805140
:100D80004160406800F08050009000980420C4F258
:100D90000100016862F31A61016002B0704700004F
:100DA000002848BF704700F01F01012202FA01F13C
:100DB0001C2202EAD0004EF20012CEF20002815054
:100DC0007047000010B54EF60C5CCEF2000CDCF85B
:100DD0000030C3F3022E8EF00704042C28BF042435
:100DE000BEF103034FF0FF3E0EFA04F438BF0023B8
:100DF000A14399400EFA03F39A43114300F00F0206
:100E000000F160430901043A03F564436244002899
:100E100048BF02F10C03197010BD00004EF60C51D2
:100E2000CEF200010A684FF6FF031A4060F30A226F
:100E300042F0806040F0FD7008607047002804BFF9
:100E4000012070472DE9F04381B042F20008C4F25E
:100E500002080446D8F800000D4600F00700814261
:100E60000CD9D8F8000020F007002843C8F800008B
:100E7000D8F8000000F00700A8426CD1206841F2C9
:100E800004098107C4F2020917D5410705D5D9F82D
:100E9000001041F4E061C9F80010010705D5D9F848
:100EA000001041F46051C9F80010D9F80010A26890
:100EB00021F0F0011143C9F80010C00742D1D8F861
:100EC000000000F0070085420CD2D8F8000020F0A6
:100ED00007002843C8F80000D8F8000000F0070019
:100EE000A84238D12068410707D5D9F80010E26838
:100EF00021F4E0611143C9F80010000708D5D9F8C2
:100F00000000216920F4605040EAC100C9F80000E7
:100F1000D9F8002002F00C00082841F20020C0F2AD
:100F20007A004DD142F2F553C2F38341C0F600037B
:100F3000595CD20338D440F60010C0F23D0048435B
:100F40003EE000BF606859F8041C022808D0012860
:100F500026D1890306D4012001B0BDE8F08300BF8B
:100F60008901F8D5D9F8001021F003010843C9F828
:100F70000000FFF7A7FE064641F28837D9F80000C7
:100F8000616800F00C00B0EB810F98D0FFF79AFE7B
:100F9000801BB842F2D9032001B0BDE8F08300BF46
:100FA0008907D8D5DEE700BFD9F8002042F2F35315
:100FB000C2F34042C0F600039A5C4843B0FBF2F033
:100FC000D9F8001042F2DB52C1F30311C0F600025F
:100FD000515C40F2080220FA01F140F20400C2F232
:100FE00000000068C2F200021160FFF793FE0020CB
:100FF00001B0BDE8F083000040F2080041F20401B6
:10100000C2F20000C4F202010068096842F2EB5229
:10101000C1F30221C0F60002515CC84070470000D5
:1010200040F2080041F20401C2F20000C4F20201E1
:101030000068096842F2EB52C1F3C221C0F6000217
:10104000515CC84070470000002804BF0120704771
:101050002DE9F04182B00446007841F20006C00755
:10106000C4F202060CD0706800F00C00042840F0B6
:1010700081803068800303D56068002800F04681D5
:10108000207880071BD5706810F00C0F09D07068AD
:1010900000F00C00082840F087807068C00300F161
:1010A00083803068800703D52069012840F02E81B5
:1010B0003068616920F0F80040EAC10030602078B3
:1010C000000713D4207840072CD4E569002D00F0E8
:1010D0001881706800F00C00082840F0A780012DEE
:1010E00040F00481012002B0BDE8F081A069002831
:1010F00000F084800020C4F242200121C0F8801456
:10110000FFF7E0FD054600BF706A800700F1B2807E
:10111000FFF7D8FD401B0228F6D9032002B0BDE836
:10112000F08100BFF0695FEAC00808D4F06940F0C0
:101130008050F061F06900F080500090009847F214
:101140000007C4F200073868C00549D4386840F485
:1011500080703860FFF7B6FD054600BF3868C005EF
:101160003ED4FFF7AFFD401B6428F7D9032002B03F
:10117000BDE8F081706800F00C00082803D17068A9
:10118000C0033FF576AF61683068002900F00C813C
:10119000B1F5A02F00F00081B1F5803F40F01A8139
:1011A00040F480301CE100BF2069002840F20000BC
:1011B000C4F2422000F0888001210160FFF782FD27
:1011C000054600BF306880073FF572AFFFF77AFD34
:1011D000401B0228F6D9032002B0BDE8F08100BF11
:1011E000E168306A002900F09D80052900F09280B6
:1011F000012940F0AF8040F00100B1E00020C4F2CE
:1012000042200021C0F88014FFF75CFD054600BFB6
:10121000706A80077FF556AFFFF754FD401B022828
:10122000F6D9032002B0BDE8F08100BF0027C4F268
:10123000422700203866FFF745FD022D05460DD1F7
:101240003068800140F1DE80FFF73CFD401B022842
:101250004FF00300F4D902B0BDE8F081306880019E
:101260004FD5FFF72FFD401B02284FF00300F5D9A3
:10127000F1E700BF40F20800C2F20000006844F647
:10128000D351C1F26201A0FB0101480A019000BFE5
:1012900000BF0198411E002801913FF413AF00BF29
:1012A0000198411E002801913FF40CAF00BF019846
:1012B000411E002801913FF405AF00BF0198411E77
:1012C00000280191E4D1FDE600210160FFF7FAFC5E
:1012D000054600BF306880077FF5F1AEFFF7F2FCEE
:1012E000401B02284FF00300F4D9B4E77068216A6C
:1012F00000F480328A4209D1616A00F47010884299
:1013000004D1002002B0BDE8F08100BF012002B08E
:10131000BDE8F08140F004003062306A40F0010026
:101320001EE000BF20F001003062306A20F00400AF
:101330003062FFF7C7FC054641F28837306A800704
:1013400020D5FFF7BFFC401BB8424FF00300F5D992
:1013500081E700BF20F001003062306A20F0040015
:101360003062FFF7AFFC054641F28837306A8007EC
:1013700008D4FFF7A7FC401BB842F7D9032002B0FE
:10138000BDE8F081B8F1000F3FF59FAEF06920F0A5
:101390008050F06199E600BF40F4802030603068F2
:1013A00040F480301CE000BF20F4803030603068B2
:1013B00020F480203060FFF785FC0546306880030C
:1013C0007FF55EAEFFF77EFC401B64284FF0030004
:1013D000F4D940E720F480303060306820F4802079
:1013E0003060FFF76FFC0546306880033FF548AE7C
:1013F000FFF768FC401B6428F6D9032002B0BDE863
:10140000F08100BF206AB0F5803F05D17168A26805
:1014100021F40031114371607168626A21F4741122
:1014200011430843706001203866FFF74BFC044607
:10143000306880013FF565AFFFF744FC001B0228D0
:101440004FF00300F4D906E7411E0020B0EB116F06
:101450001CBF012070474EF21002CEF20002516014
:101460004EF62351CEF20001F0230B70072190605D
:10147000116070477047000070470000B0B582B03F
:1014800001680A68CC684B6902F02F05202D04F032
:10149000200505D125B102B0BDE8B04000F002BE84
:1014A0005FEA027C1EBF03F0010E04F4907313EB9D
:1014B0000E0341D1036BD50618D5012B16D114F0BC
:1014C000100313D0002201920A6801924A68019227
:1014D000019A496949064BD4818DC28DC38D002B79
:1014E00018BF914240F0F48102B0B0BD13062DD573
:1014F00014F080032AD090F84120212AF4D1826888
:10150000B2F5805F03D10269002A00F06782026AA7
:10151000531C036212784A60C28C013A1304C284DD
:10152000E2D1C86820F08000C860C86840F0400080
:10153000C86002B0B0BD00BFD30718BF14F48073F9
:1015400040F0D080530700F1D380D8E05206CBD5CD
:1015500014F04002C8D0CA6822F04002CA602021BC
:1015600080F8411002B0BDE8B04000F05BBC00BFA5
:10157000C16B0A68526893B2002BB5D0858DAB421F
:10158000B2D2C2858969202900F0A180016851E8A2
:10159000031F026821F4807142E80313DBB1016884
:1015A00051E8031F026821F4807142E8031393B1EC
:1015B000016851E8031F026821F4807142E80313B7
:1015C0004BB1016851E8031F026821F4807142E8C1
:1015D0000313002BDAD1016851E8051F026821F0DE
:1015E000010142E80513C3B3016851E8051F026811
:1015F00021F0010142E805137BB3016851E8051FA2
:10160000026821F0010142E8051333B3016851E893
:10161000051F026821F0010142E80513002BDAD111
:101620001BE000BF016851E8051F026821F040017E
:1016300042E80513DBB1016851E8051F026821F09B
:10164000400142E8051393B1016851E8051F0268A3
:1016500021F0400142E805134BB1016851E8051F34
:10166000026821F0400142E80513002BDAD1202165
:1016700080F8421000210163016851E8031F0268ED
:1016800021F0100142E80313DBB1016851E8031FA8
:10169000026821F0100142E8031393B1016851E898
:1016A000031F026821F0100142E803134BB10168E7
:1016B00051E8031F026821F0100142E80313002BD8
:1016C000DAD1C16B04460846FEF7C0FF204602216E
:1016D0004163818DC28D891A89B202B0BDE8B040E4
:1016E000FFF7C8BE436C43F001034364530706D5BC
:1016F000BEF1000F03D0436C43F002034364930731
:1017000006D5BEF1000F03D0436C43F004034364DD
:10171000BCF1000F06D55EEA050303D0436C43F02D
:1017200008034364436C002B3FF4DEAE920605D5FC
:1017300025B1044600F0B6FC216820464969426C98
:1017400001F0400102F00802891800F0B98000BFE2
:10175000016851E8031F026821F4907142E8031305
:10176000BBB3016851E8031F026821F4907142E89D
:10177000031373B3016851E8031F026821F49071E9
:1017800042E803132BB3016851E8031F026821F4F8
:10179000907142E80313002BDAD11AE0016851E896
:1017A000051F026821F0010142E80513DBB1016861
:1017B00051E8051F026821F0010142E8051393B1C9
:1017C000016851E8051F026821F0010142E8051394
:1017D0004BB1016851E8051F026821F0010142E8A0
:1017E0000513002BDAD1016B012924D1016851E8DE
:1017F000031F026821F0100142E80313DBB1016806
:1018000051E8031F026821F0100142E8031393B16D
:10181000016851E8031F026821F0100142E8031338
:101820004BB1016851E8031F026821F0100142E842
:101830000313002BDAD1202180F84210002101632C
:1018400001684969490640F1C380016851E8051FF4
:10185000026821F0400142E80513DBB1016851E85C
:10186000051F026821F0400142E8051393B10168A9
:1018700051E8051F026821F0400142E805134BB111
:10188000016851E8051F026821F0400142E8051394
:10189000002BDAD1C16B002900F09A8041F6656215
:1018A000C0F60002044608464A63FEF7F3FE00282D
:1018B0003FF41AAEE06B416B02B0BDE8B0400847A0
:1018C0000446FFF7D9FD0020606402B0B0BD00BF40
:1018D000891A00BF026852E8032F036822F490724D
:1018E00043E80325BDB3026852E8032F036822F4DE
:1018F000907243E8032575B3026852E8032F03682A
:1019000022F4907243E803252DB3026852E8032FB6
:10191000036822F4907243E80325002DDAD11AE01F
:10192000026852E8052F036822F0010243E805250A
:10193000DDB1026852E8052F036822F0010243E896
:10194000052595B1026852E8052F036822F00102CF
:1019500043E805254DB1026852E8052F036822F0DF
:10196000010243E80525002DDAD1202280F842202B
:1019700000220263026852E8032F036822F010027B
:1019800043E80325DDB1026852E8032F036822F023
:10199000100243E8032595B1026852E8032F03685B
:1019A00022F0100243E803254DB1026852E8032FEC
:1019B000036822F0100243E80325002DDAD1022249
:1019C00089B2426302B0BDE8B040FFF753BD00BF2B
:1019D00002B0BDE8B040FFF74FBD00BF026A32F869
:1019E000023B6FF35F234B60026295E5002804BF62
:1019F0000120704710B5044690F8410028B9002036
:101A000084F84000204600F063F8242084F8410068
:101A10002068D4E90212C36823F40053C360036949
:101A200023F440531A430261D4E904231143C268EA
:101A3000194341F20C639A431143C1604169A269A1
:101A400021F44071114343F60002C4F201029042B6
:101A5000416103D0FFF7D0FA02E000BFFFF7E0FAE0
:101A6000D4E90023192148439900B0FBF1F048F272
:101A70001F5CC5F2EB1CA0FB0C314FF69C734909AF
:101A8000C0F6FF7301FB0300322303EB0010A0FB41
:101A90000C03F02000EA531000EB0110C3F34311D4
:101AA000084490601069202120F490401061506932
:101AB00020F02A005061D06840F40050D06000202F
:101AC000606484F8411084F84210606310BD000027
:101AD0002DE9F04186B040F600050446C4F2010548
:101AE0000068A5F54441002788420597CDE90377B2
:101AF000029703D006B0BDE8F08100BF41F21800A4
:101B0000C4F20200416802AE41F400314160416814
:101B100040F26C0801F40031019101990168C4F2AE
:101B2000020841F0040101600068314600F0040041
:101B30000190019804200290022003900320059058
:101B40002846FEF7B7FF0820CDE9020728463146B0
:101B50000497FEF7AFFF40F2BC05C2F200058026F5
:101B60002846C5E90087C5E90276C5E90477C5E9D5
:101B70000677FEF7BBFE002818BFFEF761FDE563A0
:101B80006C6240F2001508F11400C2F20005102149
:101B9000002285E847002846C5E90422C5E9062257
:101BA000FEF7A4FE002818BFFEF74AFD26200021FC
:101BB0000022A5636C62FFF705F92620FFF7F0F815
:101BC00006B0BDE8F0810000704700002DE9F04349
:101BD00081B0044690F84100202809D100294FF037
:101BE000010018BF002A07D101B0BDE8F08300BF93
:101BF000022001B0BDE8F0830020606421201D4672
:101C00000E4684F841001746FFF75CF8A784E78486
:101C1000A1688146B1F5805F02D1206900285DD0BE
:101C200037460020E28C2168002A5DD06A1C24D04F
:101C3000002D4AD0804600BF0868000608D4FFF790
:101C400041F8A0EB0900A8427AD82168C868F3E7F8
:101C500017B117F8010B04E038F8020B00276FF3F7
:101C60005F204860E08C0138E084E08C0028E3D1FC
:101C70003AE000BF0A68120609D40A68120606D4C0
:101C80000A6812065CBF0A685FEA0262F2D51FB1F9
:101C900017F8012B05E000BF30F8022B00276FF387
:101CA0005F224A60E28C013AE284E28C002AE4D1AD
:101CB0001AE000BF30F8022B00276FF35F224A6062
:101CC000E28C013AE284E28C72B10A68120635D5E0
:101CD000002FEFD017F8012BF1E700BF00273046A7
:101CE000E28C2168002AA1D1086840061ED42DB3D9
:101CF000681C14D1086840062AD40868400627D416
:101D00000868400624D4086840064FF00000F1D56A
:101D10000DE000BF2068C1680068400618D4FEF7D7
:101D2000D1FFA0EB0900A842F4D909E0002020214E
:101D300084F8411001B0BDE8F08300BFFEF7C2FF98
:101D40000320202184F8411001B0BDE8F08300BFDA
:101D50000020202184F8411001B0BDE8F08300008C
:101D600090F84130202B09D1944600294FF0010210
:101D700018BFBCF1000F05D1104670470222104673
:101D8000704700BF70B5002221230162A0F824C073
:101D9000A0F826C0426480F841300468836B41F6A5
:101DA000ED7E42F29D0541F67166C0F6000EC0F66A
:101DB0000005C0F60006C3E90AE5C3E90C62221D6E
:101DC000044618466346FEF7D3FD216820466FF0AF
:101DD00040020A60016851E8051F026841F0800175
:101DE00042E80513DBB1016851E8051F026841F0C4
:101DF000800142E8051393B1016851E8051F0268AC
:101E000041F0800142E805134BB1016851E8051F1C
:101E1000026841F0800142E80513002BDAD100206E
:101E200070BD0000006844F20041C4F20001884225
:101E300018BF704740F27000C2F2000000218170AC
:101E40007047000070470000FEE70000FEE700005A
:101E5000FEE700007047000070470000FEF738BF43
:101E600070470000406A0021C185C184FFF704BBB0
:101E7000406A01684A6990F84130212B2DD112F057
:101E800080022AD00021C184016851E8031F026842
:101E900021F0C00142E80313DBB1016851E8031FE0
:101EA000026821F0C00142E8031393B1016851E8D0
:101EB000031F026821F0C00142E803134BB101681F
:101EC00051E8031F026821F0C00142E80313002B10
:101ED000DAD1202180F841100168496990F8422048
:101EE000222A40F07D8011F0400179D00021C18587
:101EF000016851E8031F026821F4907142E803135E
:101F0000BBB3016851E8031F026821F4907142E8F5
:101F1000031373B3016851E8031F026821F4907141
:101F200042E803132BB3016851E8031F026821F450
:101F3000907142E80313002BDAD11AE0016851E8EE
:101F4000051F026821F0010142E80513DBB10168B9
:101F500051E8051F026821F0010142E8051393B121
:101F6000016851E8051F026821F0010142E80513EC
:101F70004BB1016851E8051F026821F0010142E8F8
:101F80000513002BDAD1016B012924D1016851E836
:101F9000031F026821F0100142E80313DBB101685E
:101FA00051E8031F026821F0100142E8031393B1C6
:101FB000016851E8031F026821F0100142E8031391
:101FC0004BB1016851E8031F026821F0100142E89B
:101FD0000313002BDAD1202180F842100021016385
:101FE000416C41F010014164FFF746BA0168406A54
:101FF0000968890648BFFFF715BF0021C18400BFEB
:10200000016851E8051F026821F0800142E80513CC
:1020100083B3016851E8051F026821F0800142E89E
:1020200005133BB3016851E8051F026821F08001E8
:1020300042E80513F3B1016851E8051F026821F079
:10204000800142E80513002BDAD113E0016851E862
:10205000031F026841F0400142E80313002B08BF50
:102060007047016851E8031F026841F0400142E8EF
:10207000031393B1016851E8031F026841F0400166
:1020800042E803134BB1016851E8031F026841F0B5
:10209000400142E80313002BD8D17047406AFFF794
:1020A000D1BE000081B090F84210222921D183686E
:1020B0000246B3F5805F09D152F8281F52F8183C48
:1020C000002B63D003685B680AE000BF52F8281F4A
:1020D00013B90369002BF5D003685B6803F07F0335
:1020E0000B70116801311160C18D01390A04C1857D
:1020F00002D001B0704700BF0168CA6822F0200218
:10210000CA60CA6822F48072CA604A6922F0010279
:102110004A61202180F8421000214163026B012AAC
:102120003CD10163016851E8031F026821F01001EE
:1021300042E80313DBB1016851E8031F026821F094
:10214000100142E8031393B1016851E8031F0268CC
:1021500021F0100142E803134BB1016851E8031F5D
:10216000026821F0100142E80313002BDAD1016864
:102170000A68D20606D5002200920A6800924968D1
:1021800000910099818D01B0FFF774B9026852681F
:102190006FF35F2221F8022B8162A5E701B0FFF700
:1021A00013BD000040F24410C2F20000FFF766B910
:1021B000FEE7000092B0FEF799FD00250120CDE971
:1021C0000D55CDE90B5508900C904FF4E0104FF4ED
:1021D00080310224119008A8CDE90915CDE90F41FD
:1021E000FEF732FF20B1EFF3108072B6FEE700BFBA
:1021F0000F2003A931C14FF4806403A80221CDE967
:102200000645FEF71BFE28B1EFF3108072B600BF43
:10221000FEE700BF4EF6FC50CEF2000001684FF022
:10222000000A41F08071016041F20000CEF200002E
:10223000016841F2180641F001010160C0F804A0F4
:10224000CDE90AAACDE908AAC4F20206306808A9B5
:1022500040F020003060306800F0200003900398C8
:10226000306840F004003060306800F004000390F3
:102270000398306840F008003060306800F00800D3
:10228000039003980894002044F20044C1F2310006
:10229000C4F20004CDE9090A04F54840FEF70AFC3F
:1022A000282000210022FEF78DFD2820FEF778FD72
:1022B00056F8040C002140F0010046F8040C56F8D2
:1022C000040C002200F00100089008981020FEF78E
:1022D00079FD1020FEF764FD112000210022FEF799
:1022E00071FD1120FEF75CFD40F24410C2F20000C7
:1022F0004FF4E1310C22C0E90041C0E902AAC0E973
:1023000004A2C0E906AAFFF771FB28B1EFF3108021
:1023100072B600BFFEE700BF40F2441BC2F2000BE2
:102320008AA1584612226423FFF750FC40F270063F
:1023300040F28C14C2F20006C2F2000442F23517D9
:1023400042F21B5841F2873940F6C31C06E000BF39
:10235000FFF706FD40F6C31C86F801A0707801283F
:10236000FCD12068B8420DD3206840450AD8606887
:10237000B0F57A6F06D96068484503D8002000237D
:102380001DE000BF2068B842E6D320684045E3D88E
:102390006068B0F5FA6FDFD960686045DCD8B07866
:1023A0000028D9D10120B07058466DA10822CFE78E
:1023B00051004B1C4030B0F5807F00F0A9802118FF
:1023C000CA68A2F27955B5F5F97F39D85A000132B9
:1023D0004B69A3F27955B5F5F97F3ED85200013229
:1023E000CB69A3F27955B5F5F97F43D85200013294
:1023F0004B6AA3F27955B5F5F97F48D852000132FE
:10240000CB6AA3F27955B5F5F97F4DD85200013268
:102410004B6BA3F27955B5F5F97F52D852000132D2
:10242000CB6BA3F27955B5F5F97F57D8520001323D
:10243000496CA1F27953B3F5F97FB9D95CE000BFDB
:10244000A2F29112B2F5C77F3FF686AF5A004B69F0
:10245000A3F27955B5F5F97FC0D9A3F29113B3F57D
:10246000C77F3FF679AF5200CB69A3F27955B5F536
:10247000F97FBBD9A3F29113B3F5C77F3FF66CAFD9
:1024800052004B6AA3F27955B5F5F97FB6D9A3F29C
:102490009113B3F5C77F3FF65FAF5200CB6AA3F24B
:1024A0007955B5F5F97FB1D9A3F29113B3F5C77F8B
:1024B0003FF652AF52004B6BA3F27955B5F5F97F59
:1024C000ACD9A3F29113B3F5C77F3FF645AF5200E5
:1024D000CB6BA3F27955B5F5F97FA7D9A3F2911388
:1024E000B3F5C77F3FF638AF5200496CA1F279537C
:1024F000B3F5F97F7FF65CAFA1F29111B1F5C77F1B
:102500003FF62AAF53004030B0F5807F7FF457AFDD
:10251000B07800287FF420AFD94606F10C0B4FEAC3
:10252000136CC3F307255846402110A2CDE900C51E
:10253000FDF764FE0120B0705846FDF797FF82B2A8
:1025400048465946CB4641F2873901E74952204473
:1025500065636F6465722052656164790D0A0000DD
:102560005245504541540D0A00000000434F444578
:102570003A30782530386C5820414444523A30780B
:102580002530325820434D443A3078253032580DAA
:102590000A00000030380A2801D2012070470020CC
:1025A000704730313233343536373839414243445D
:1025B00045464030580030313233343536373839BB
:1025C00061626364656640307800040000080000C2
:1025D00000000000000200010000100000000000E8
:1025E00000000001020304060708090000000001C2
:1025F000020304010202030405060708090A0B0C82
:102600000D0E0F101000000028260008000000200A
:1026100010000000500100083826000810000020BB
:102620009008000070010008010000001000000088
:0826300000127A000000000016
:04000005080000ED02
:00000001FF
